:020000040800F2
:10000000A0090020490100082D4B00087943000891
:1000100000000000000000000000000000000000E0
:10002000000000000000000000000000174C000865
:100030000000000000000000154C0008194C0008EA
:1000400079010008790100087901000879010008A8
:100050007901000879010008790100087901000898
:100060007901000879010008790100087901000888
:100070007901000879010008790100087901000878
:10008000790100080000000000000000D14C0008C9
:1000900000000000790100087901000879010008DA
:1000A00000000000790100087901000879010008CA
:1000B0007901000800000000D91800087901000843
:1000C00000F002F800F030F80CA030C8083824180E
:1000D0002D18A246671EAB4654465D46AC4201D180
:1000E00000F022F87E460F3E0FCCB6460126334282
:1000F00000D0FB1AA246AB46334318474C7A0000A7
:100100006C7A00000023002400250026103A01D359
:1001100078C1FBD8520700D330C100D50B607047BF
:100120001FB51FBD10B510BD01F044FA1146FFF711
:10013000F7FF06F01FF901F05CFA03B4FFF7F2FFD6
:1001400003BC01F08DFA00000F4880F308880F48C7
:100150000168090E0E4A914205D10E480E49016010
:100160000E480F4901600F4880470F480047FEE7DF
:10017000FEE7FEE7FEE7FEE7FEE700000B480C495E
:100180000C4A0D4B70470000A0090020040000003D
:100190001F00000018100240010000000000014094
:1001A00000000000CF4C0008C1000008A0030020A0
:1001B000A0090020A0050020A005002010B5202ADD
:1001C00004DB0846203AD040002110BD0B46202415
:1001D000D340D040A21A91400843194610BDFEB545
:1001E000054610460C46184373D0AE468C46002098
:1001F000AD1A01469C4167D36646002701243D465F
:10020000B61A9D4102D313463A46212465467646E6
:100210002F04360C3E432D0CB61A9D4104D3150C09
:100220001B042B4312041034654676462F06360A0B
:100230003E432D0AB61A9D4104D3150E1B022B43D3
:1002400012020834654676462F0736093E432D09CB
:10025000B61A9D4104D3150F1B012B431201241D17
:1002600065467646AF07B6083E43AD08B61A9D41CF
:1002700004D3950F9B002B439200A41C6546764641
:10028000EF0776083E436D08B61A9D411AD39218BF
:100290005B41641C16E00018764665464941B71A72
:1002A0009D410191009009D36046B11A98418E4654
:1002B0008446009801990025401C6941DD075208D9
:1002C0002A435B08641EE6D57246634603B0F0BD60
:1002D000FFE700200146C046C0462A462346F5E710
:1002E00001E004C0091F0429FBD28B0701D502805D
:1002F000801CC90700D00270704700290BD0C307CB
:1003000002D00270401C491E022904D3830702D583
:100310000280801C891EE3E70022EEE70022DFE76F
:10032000002203098B422CD3030A8B4211D30023F2
:100330009C464EE003460B433CD4002243088B42CC
:1003400031D303098B421CD3030A8B4201D3944659
:100350003FE0C3098B4201D3CB01C01A524183094C
:100360008B4201D38B01C01A524143098B4201D306
:100370004B01C01A524103098B4201D30B01C01A31
:100380005241C3088B4201D3CB00C01A52418308AB
:100390008B4201D38B00C01A524143088B4201D3D8
:1003A0004B00C01A5241411A00D201465241104638
:1003B00070475DE0CA0F00D04942031000D34042AD
:1003C000534000229C4603098B422DD3030A8B42E3
:1003D00012D3FC22890112BA030A8B420CD3890181
:1003E00092118B4208D3890192118B4204D3890167
:1003F0003AD0921100E08909C3098B4201D3CB01A5
:10040000C01A524183098B4201D38B01C01A524159
:1004100043098B4201D34B01C01A524103098B425D
:1004200001D30B01C01A5241C3088B4201D3CB0048
:10043000C01A524183088B4201D38B00C01A52412B
:10044000D9D243088B4201D34B00C01A5241411A02
:1004500000D20146634652415B10104601D3404230
:10046000002B00D54942704763465B1000D34042E1
:1004700001B50020C046C04602BD704770477047B6
:100480000246C80FC00781434B0030B54B405B00AC
:100490009B0D20D01923DB06C91801231B059942A7
:1004A00020DB0324A40704251346AB400BD3002B09
:1004B00004D1EB0613409B00E34204D401246407FB
:1004C000002312195941FF231B0599420BD2C90081
:1004D0000143500F09E0CB0204D501430803024356
:1004E00005D0054830BDFF21C905084330BD084689
:1004F00007210905884330BD0000C07FF0B50C46D8
:10050000871A9C410D46861A9D4103D2C01BA1410A
:10051000D21963410D0D1F0DC94EEC1BAE435CD0CB
:100520007F057F0D0026002F51D02D05AC46A94335
:10053000DD020123ED0A1B051D4320231B1B24D4D0
:100540001746E740381871412F46E740CC199D40C7
:100550002818314661410C0D27D161449A4013D5CA
:100560000023401C594152000ED140084000012296
:100570004B005205D34207D305204007C14201D5A5
:10058000B04900E0B0493046F0BD6B00002A00D011
:1005900001229A181F23203C1B1B01D5002302E0D7
:1005A000E540281871410C0DD7D001242405091904
:1005B000C407CD0740084908E40F28436144002CD4
:1005C000D5D00024401C61419A40D0D1CDE76A05C6
:1005D000520DD9D1C90FC907D5E79C4D4E0000284F
:1005E00001D0012400E0002434195F00002A01D06A
:1005F000012600E00026BE19954FAC420CD8AE4251
:100600000AD8B44206D001256D05EC42BCD0104694
:100610001946F0BD9942FCD000203946F0BDF0B536
:100620001FB40C460F46811A9F412546861A9D41EC
:1006300006D20125ED076F40401ABC4152187B419C
:10064000210D1E0D8D1BAC467D4D8D437ED0750555
:100650006D0D7CD00D05AE46AC431B031B0B794DD5
:1006600052429D41202366469B1B14D31746F740F8
:10067000381800260090744160462F460741E4195F
:1006800000989D402818664116D4714671189A400A
:1006900025D5012320E093182A466A415200002BF9
:1006A00000D0521C1E23203E9B1B002B61DD3541D8
:1006B000EE1728186641E8D5001876415B1C9A4071
:1006C00000D3401C4B05F3181524E34010D3002B36
:1006D00052D071467118D30FC01802D3491C05B00F
:1006E000F0BD0123DB079A42F9D140084000F6E74C
:1006F00001225205B21801D1002853D00123CC0A9F
:10070000DB029943891E002A08D1020C03D0020C97
:100710000004103902E00246002020390023550B66
:1007200005D112020823550B01D152010D23550C9E
:1007300001D112011B1DD50C01D192009B1C150D7E
:1007400001D152005B1C2025EE1A01E02CE022E0D2
:100750000546F54015439840CA1AE1076918130584
:10076000C918002ABBDA032040070818C10FC907BF
:100770000FE071466118B2E7F107400808437110B5
:1007800071444A000CD001235B059A42A7D2C90FDD
:10079000C9070020A3E74905490D26D1002001E043
:1007A0000028F4D100219AE7284D6600002801D0E6
:1007B000012100E0002171185F00002A01D001260C
:1007C00000E00026BE19224FA94210D8AE420ED832
:1007D000B14208D001256D05E94206D01946A802AC
:1007E000414010467BE79C4201D0214677E700203C
:1007F000394674E710B50C465C4005D50124E40782
:100800006340FFF70CFF10BDFFF778FE10BD30B45A
:100810000C465C4004D50124E407634030BC6DE61F
:1008200030BCFCE670B50124E40761400D465D4034
:1008300002D4FFF763FE70BD6340FFF7F0FE70BDAA
:10084000FF0700000000F0FF0000F07F0000E0FF65
:100850000000F87FF0B5F94D0C091E092C402E4020
:100860002F468BB0A7437DD0B543FCD0002E7AD065
:10087000002CFCD00D465D40ED0F2543AC1BFF2541
:10088000AD0464190894C502440DC9022143500DFA
:10089000DC0204430120C00701430443D20201915A
:1008A000200C110C00958C46010423468B430A91C1
:1008B00061460904E24D8A430991010A7D444919C0
:1008C0008039097805464D4301266D18F605751BDC
:1008D0006943C90C640B891C4C436418B5012C1B7B
:1008E000250C2E04B4434C434D43210C691889094F
:1008F0000591009DE90701D00121C90704912C460B
:1009000001996708CD072F434C08059DE10B4D4326
:100910002D0C29466646754302950D4645432E46E5
:10092000029D7D1BB44100950D465D4301942C0C46
:100930002F040D465543AE462D0C3D4302950394BE
:100940007546049C2D04641B049406D2029C039DEE
:10095000641C002675410395029401AC70CC009F85
:100960007D1B01E03EE162E1B4410904009507917D
:1009700001940599A4086143090C0C464443650B96
:10098000E7040C4666467443A646640B3C43039555
:1009900002947446049DE4042C1B049406D2029C29
:1009A000039D641C002675410395029401AC70CC34
:1009B000009F7D1BB44101940C465C430095650F7C
:1009C000E7000C465443A646640F3C43039502944B
:1009D0007446049DE4002C1B049406D2029C039DE3
:1009E000641C002675410395029401AC70CC009FF5
:1009F0007D1BB441AE09AF06049DC900AD092F436C
:100A0000049DA406AD060495079D3443691807911B
:100A1000059DE10B4D432D0C294666467543029515
:100A20000D4645432E46029D7D1BB44100950D4663
:100A30005D4301942C0C2F040D465543AE462D0CFE
:100A40003D43029503947546049C2D04641B049455
:100A500006D2029C039D641C0026754103950294F6
:100A600001AC70CC009F7D1BB44101948C050694B1
:100A7000079C890A611800950791019C0599A408B3
:100A80006143090C0D464543680BEF040D4664466F
:100A900065436C0B3C43049FED047D1BAC4602D2C6
:100AA0000025641C6841009E019D371B8541084656
:100AB000584301950C46460FC5005443600F284328
:100AC0006546E4002C1B02D20025401C6E41019DAE
:100AD0003F1AB5412846BD09800628438446A0092F
:100AE000BF064E020699A40676180743079D00200C
:100AF00068410A99079019430020099B00906046BD
:100B0000FF1913434041E20F64003A43A4460446F0
:100B1000D71A8C41A04203D90120009020463A46C2
:100B2000C70F941840416246D20F224364466400C6
:100B30000494009CBE466400D71AA446044602975B
:100B40008C417746002F01D1A04204D96046401C59
:100B50008446029A2046C40FA64694184041049A3F
:100B60000546D20F224364466400D31A8D41714674
:100B7000002901D1A84202D928461A46641C104314
:100B80000122002800D0164361020020079B89192A
:100B900004465C410223002C02DB491813466441E1
:100BA000089DCE0A2D145D194B056705E10A2C0539
:100BB0000D1908993E43C9076940002B08D093409E
:100BC00006D30022761C5141002B01D17608760015
:100BD0001C4A002D43DB154241D0AA433FD030468A
:100BE0000BB0F0BD06180D464D41174C7642AC4196
:100BF0001AD395181C465C41134A6D42A24113D387
:100C0000012252054C00D4420AD15C00D4420BD0E0
:100C10004B4002D592021143E2E749004908DFE761
:100C20005940C90FC90718E000200849D8E705480E
:100C300001420DD10342F7D0F2E700000000FF07A8
:100C4000307100000000F07F0000E0FF0000F87F3E
:100C5000114859400143C01241400020C0E7012320
:100C6000089A9B069A4205DC032252078918C90F8D
:100C7000C907B5E7052252078918074A1143D2125E
:100C80005140ADE770B515461C4602460B46284656
:100C90002146FFF7DFFD70BDFFFFFF7F30B5034644
:100CA000CA02400D1043164D164C0A1502D02043BF
:100CB000002A06DBAA1A002A12DDD040FF2A0BDC2C
:100CC00030BD5205520D01D140004008AA1A07D488
:100CD000D0404042FF2A01DD002030BD0028FCDD6D
:100CE0004A00002B01D0012000E000201018012252
:100CF0005205D042F0D8C817C043604030BD000054
:100D00001E040000000000801F22030C02D10F22ED
:100D1000000402D0030E03D004E000200146704717
:100D20000002083A030F01D10001121F830F01D105
:100D30008000921E002801DB4000521E120551184F
:100D40004205C012411810467047C10FC90700D0B4
:100D50004042012292071143D6E701218907D3E7D8
:100D6000F0B58B4C0F09254689B0BD437BD01D09DA
:100D70002646AE43FAD00E465E402740F60F3E436D
:100D8000254071D024012142FBD0FF24AD19A404D9
:100D90002D1B039501252D05DB02DB0AC9022B4320
:100DA000C90A29431E010901040F130F050121433C
:100DB0001701880B820391432D098C46A90B1E4312
:100DC0008A039543B30B9A0396433F09BA0B9403E6
:100DD000A74302962E467E430497B6464E19D7196E
:100DE0000C460196544305977E43371B7646BF1B3E
:100DF0003601B646BE0B361900967646BC04371946
:100E0000009C01D3641C00946400002F01D00126D3
:100E10003443029E049F754366467E4304967600E3
:100E200034196E0034190094029C019E1C1966430B
:100E3000751BAE46069465464519059C05956C43A1
:100E4000594375460891691A0191049E0146514320
:100E5000A41B0491611A009C0791E10605D0610969
:100E60000122114302E072E06EE06109089D002753
:100E70002C0A2D066918049D7C412A0A2D06691842
:100E8000019D6241AC0DAD026D185441079A910D60
:100E9000920255196141029A644658435443069B95
:100EA000059A5A43121A131B9A0E9B015B187A413A
:100EB000010B0005C3185141220A200644195A416A
:100EC0009A4200D2491C01204002814203D31523DB
:100ED0000226F64302E014230326F6432020C51A17
:100EE000A9401746AF40DA400A4320460399D8404C
:100EF0000914731819055118039A3843D207514041
:100F0000AC4009D00122944006D30022401C51413C
:100F1000002C01D1400840001E4A934212D3012206
:100F200003989206904207DB0520400709181A48EB
:100F30000143C012414004E0032040070818C10FDC
:100F4000C907002009B0F0BD0020F107FAE7051835
:100F50000C464C4111486D42A04115D394181A46D5
:100F60005A410E48644290410ED301204A00400588
:100F7000824209D35A00824206D35940C90F084A17
:100F8000C90700201143DDE700200649DAE7000029
:100F90000000FF07FE070000FFFFFF7F0000E0FFEB
:100FA0000000F07F0000F87F0121C90501234118EE
:100FB00042001B06D3185B0E0AD0C1100722D206CE
:100FC000891840075242D14201D552008918704712
:100FD000090208D50146002A03D0C10FC907002025
:100FE000704710467047420202D000200249704705
:100FF000072109050143F4E70000F87FF0B5FF255C
:101000002D04C609C209FF2704462E400137CB092B
:101010003E4348402A402B400746002A6BD0002B15
:1010200069D0AA4267D0AB4265D0002800DA3246C8
:101030000125ED0529432C4309022002090AD21A91
:101040004B0C7F24E31A434C000A7C44E35C7D2470
:101050002404121914145B00A218884201D3521CF4
:1010600000E0400049420C465C4324115C43DB0134
:101070006415E318040A5C43C502200D0C46444382
:101080006419250A5D432303EC0C0D4665430003F8
:101090000019EB184C42A34201D35B18401CD40545
:1010A0002018002B07D05B00C91804D3401C00296E
:1010B00001D1400840003F2189048A4209D3002A17
:1010C00008DC1106090F04D0032149074018C00F9E
:1010D000C007F0BD01224100120689187F22520686
:1010E0009142F6D205214907C84201D59010F0BDC2
:1010F000FF20C005F0BD002F00DA32461648AA4294
:1011000007D2AB4205D21902090E17D0F80FC0075B
:10111000F0BDFF2563002D06AB42F9D84900A94276
:10112000F6D8AB4201D1A942F2D0A94201D10021A7
:1011300001E061004908D0050843F0BD1102090E25
:10114000FBD0FF200243D005F0BD0A460146104601
:1011500054E70000226A00000000C07F10B501467D
:101160009E240002CA15A307002A02D01843002AB1
:1011700004DBA21A002A0CDDD04010BD1206120EAC
:1011800001D140004008A21A03D4D04040420028B8
:10119000F3DDFF2248001206904201D9002010BD65
:1011A000C817C043584010BD0102C21504D0012326
:1011B000DB071943002A0ADB9E239A1A02D4084649
:1011C000D0407047FF2241001206914201D9002011
:1011D0007047C017C04370471F22030C02D10F2273
:1011E00000041CD0030E01D10002083A030F01D104
:1011F0000001121F830F01D18000921E002801DB25
:101200004000521ED2055118021251181922904066
:1012100004D3491C002801D14908490008467047F9
:10122000C10FC90700D04042012292071143D3E702
:1012300001218907D0E710B500F08AF9006810BDD8
:1012400010B5044600F084F9046010BDF8B5224CD6
:101250004E00069DA6420AD8A64201D1002806D11A
:101260005E00A64203D8A6420AD1002A08D00D2467
:10127000240425422CD02946002000F06DF9F8BD49
:101280000C461C430CD4994202D0EFF30080F8BD09
:10129000904202D0EFF30080F8BDEFF30080F8BD7C
:1012A00009242407E5008B4206D0EFF30080A04319
:1012B000591A06D2284304E0101A05D3EFF3008030
:1012C000A04380F30088F8BDEFF30080A043F1E76E
:1012D000009500F059F9F8BD0000E0FF70B5054633
:1012E0004800440D124B0020002C0AD0634008D067
:1012F0009A4206DA6642B24203DD120540195141B4
:1013000070BD002C08D0002B09D0C90FC907002AD6
:10131000F6DB084A114370BDC90FC90770BD2846E6
:101320000A03104302D00020034970BD284670BD57
:10133000FF0700000000F07F0000F87FF0B53D4B94
:1013400002460C461C400020002C63D03A4D8B43D3
:1013500066D000296BDB0B0D1D05A94301252D056A
:1013600029430124FD33E34001D392184941FF335F
:1013700081339C468B02940D0121234389074C4203
:10138000920200271B198C105D1A04D42D1B02D465
:101390002B466500491992185B416408F4D15C1A28
:1013A00008D40125ED07EE175519744102D42A46D9
:1013B0002346491C94185B41012292071D46E61BF7
:1013C0008D4106D4B61A854103D42B4655003446C8
:1013D0007F1924195B415208802AEFD1234300D0A2
:1013E000022338460A22D04001D3012213438A0542
:1013F00010436246890A12058918002B09D0012280
:10140000D34002D30022401C5141002B01D140089F
:101410004000F0BD0B03134307D0C90FC907F0BD4F
:101420000803104303D1002901DB1046F0BD002062
:101430002946F0BD0000F07F0000F87FF8B50646B1
:1014400001270E43FF0509220546F41B12070D4331
:10145000D300F619002D1CDB002E09DB002C24DB49
:10146000401A02D3EFF300800AE0EFF300800BE0B4
:10147000F84234D4F94232D4401A03D3EFF3008057
:10148000904303E0EFF300809043184380F300881B
:10149000F8BD002E11DA002C07DA081A02D3EFF398
:1014A0000080EDE7EFF30080EEE7001A02D3EFF3E0
:1014B0000080E5E7EFF30080E6E70124450024061D
:1014C0006D42A5420BD94D006D42A54207D9081ABD
:1014D00002D3EFF30080D3E7EFF30080D4E7024AB2
:1014E00000F004F8F8BD00000900100410B5FF2357
:1014F0001B0644009C421DD84C009C421AD803464F
:10150000124A0B4307D4401A02D3EFF3008010BDF8
:10151000EFF3008010BD081A06D2EFF3008001211E
:101520009043C907084302E0EFF30080904380F343
:10153000008810BD0D231B041A4204D01146002060
:1015400000F00AF810BD00F029F810BD000000906E
:101550000048704740030020C80212D54803400FDE
:10156000002804D0C803C043012188407047EFF32E
:1015700000800001000903210907084380F3008867
:10158000704700207047000010B500200249029A01
:1015900000F037F810BD00000000F87F10B50248D9
:1015A00000F02FF810BD00000000C07F0048704719
:1015B000400300207546FFF7F9FFAE460500694677
:1015C0005346C008C000854618B020B5FEF7D6FDCA
:1015D00060BC00274908B6460026C0C5C0C5C0C5C6
:1015E000C0C5C0C5C0C5C0C5C0C5403D49008D46C9
:1015F000704710B50446C046C0462046FEF79DFD24
:1016000010BD10B50C461107090F092904D00A298D
:101610000AD008290CD104E011460820FFF79CFFEE
:1016200006E0510606D501E0510601D50120C007AC
:10163000214610BDD10607D501010909CC0849078B
:10164000000E0006044309E0410F20024907000A8A
:101650000143200E00061D22D14101430846E7E761
:1016600001491820ABBEFEE726000200704770B5A6
:101670008C180578401C6B075B0F01D10378401C68
:101680002A1106D10278401C03E00678401C0E7037
:10169000491C5B1EF9D12B0705D40023521E0DD423
:1016A0000B70491CFAE70378401CCB1A921C03E02C
:1016B0001D780D70491C5B1C521EF9D5A142D8D370
:1016C000002070BD70B504460025206880680421A4
:1016D0000840800800282FD020688068084004282F
:1016E0000BD12068806802210840002805D12068BD
:1016F0008068102108432168886001F033FA0546AC
:1017000014E001F02FFA401B02280FD920688068EE
:1017100004210840002809D0A06B10210843A063D1
:10172000E06B01210843E063012070BD2068806800
:10173000042108400028E4D10020F6E770B50446F3
:101740000025206880688007800F01280ED120685E
:101750000068C007C00F002806D12068C0680121BA
:10176000C9030840884201D1012000E00020002880
:101770003DD02068806805210840012800D100E0A4
:10178000002000280AD000BF20688068022108439A
:101790002168886003202168086009E0A06B10219F
:1017A0000843A063E06B01210843E063012070BDA2
:1017B00001F0D8F9054614E001F0D4F9401B0228E5
:1017C0000FD920688068C007C00F002809D0A06B1F
:1017D00010210843A063E06B01210843E06301206E
:1017E000E5E720688068C007C00F0028E4D100202A
:1017F000DDE7000038B50446002500200090206891
:1018000080688007800F01280ED120680068C0071B
:10181000C00F002806D12068C0680121C903084014
:10182000884201D1012000E0002000284CD120682E
:10183000806826490840002801D1012000E00020EE
:10184000002809D1A06B10210843A063E06B01219F
:101850000843E063012038BD206880680121084307
:10186000216888601A491B480068FEF759FD0090FE
:1018700002E00098401E009000980028F9D101F085
:1018800071F9054617E001F06DF9401B022812D9E5
:1018900020680068C007C00F012148404840002868
:1018A00009D1A06B10210843A063E06B012108431C
:1018B000E0630120CFE720680068C007C00F012166
:1018C000484048400028DED00020C4E717000080D0
:1018D00040420F005401002010B5024800F0A7FC60
:1018E00010BD0000DC01002072B600BFFEE7000062
:1018F00000200749C86107480069042108430549D9
:1019000008610846006940210843024908617047A0
:1019100020030020002002400021084AD16108492C
:10192000096902221143064A116111464861096999
:1019300040221143024A1161704700002003002039
:10194000002002400022054BDA61054A126901239A
:101950001A43034B1A6101807047000020030020E6
:101960000020024000200F49C968102211401029B0
:1019700007D10D49C969022211430B4AD1611021D7
:1019800008430849C96804221140042907D10649BF
:10199000C96901221143044AD16104210843014964
:1019A000C8607047002002402003002070B5044644
:1019B00001F0D8F805460BE0601C002808D0002C88
:1019C00004D001F0CFF8401BA04201D9032070BD24
:1019D0000F48C068C007C00F0028EDD10C48C06890
:1019E00020210840202801D10949C8600848C06862
:1019F00010210840102805D00548C068042108407F
:101A0000042803D1FFF7AEFF0120E0E70020DEE766
:101A100000200240F8B504460D4600260020009044
:101A200001210907E06A884215D0E06A012812D036
:101A3000E06A02280FD0E06A03280CD0E06A04288C
:101A400009D0E06A052806D0E06A062803D0E06ADB
:101A5000072800D000BF00BF3420005D012801D15D
:101A60000220F8BD01213420015500BF20688068A4
:101A700004210840800800287ED14D4968688842CA
:101A800064D02068806A2A78012191400843216847
:101A9000886201210907E06A884229D0E06A0128AA
:101AA00026D0E06A022823D0E06A032820D0E06A2A
:101AB00004281DD0E06A05281AD0E06A062817D04D
:101AC000E06A072814D0A868216849694907490FC6
:101AD00088420DD020684069C008C0002168486174
:101AE00020684069297A4907490F084321684861FD
:101AF0002868102805D02868112802D028681228E4
:101B00004FD12C4880682968102901D1C90407E009
:101B10002968112902D10121890501E00121090665
:101B2000084324498860286810283AD1224923486C
:101B30000068FEF7F5FB0A214843009002E0009898
:101B4000401E009000980028F9D12AE02068816AA0
:101B50002A780120904081432068816228681028FB
:101B600005D02868112802D02868122819D11148F8
:101B700080682968102900E00EE001D1C90407E05F
:101B80002968112902D10121890501E001210906F5
:101B900088430849886004E0A06B20210843A063C3
:101BA000012600BF00213420015500BF304658E710
:101BB000011000000027014040420F0054010020A6
:101BC00001460868006C704770B504460026002581
:101BD000002C01D1012070BDA06B002806D1E0636C
:101BE000002134200155204600F0D0F8A06B1021D0
:101BF000084000287ED1002EFCD120688068042196
:101C0000084080080028F5D1A06B89018843022193
:101C10000843A063206880688007800F01280DD1E9
:101C200020680068C007C00F002805D12068C06880
:101C300089030840884201D1012000E000200028EB
:101C40000FD12068C06818218843A1680843216823
:101C5000C8602068006980008008616808432168C6
:101C600008612068C068474908402168C860207E34
:101C70008003617EC9030843A17E49030843A16A2A
:101C8000012902D00121090300E000210843E16895
:101C900008432169022901D1042100E00021084301
:101CA0002421095D490008430543E07E01280ED147
:101CB000A07E002803D101200004054307E0A06BAB
:101CC00020210843A063E06B01210843E063FF216A
:101CD000C231E069884203D0216AE06908430543C4
:101CE0002068C06828432168C86001210907E06AAC
:101CF000884200E03EE014D0E06A012811D0E06A9A
:101D000002280ED0E06A03280BD0E06A042808D02D
:101D1000E06A052805D0E06A062802D0E06A0728B4
:101D20000DD120684069C008C00021684861206862
:101D30004069A18D4907490F08432168486120681F
:101D4000C06811490840A84208D10020E063A06B98
:101D50000221884301210843A06310E0A06B022107
:101D6000884310210843A063E06B01210843E0632E
:101D7000012604E0A06B10210843A0630126304631
:101D800029E700001902FEFFE7FF3F8310B586B088
:101D90000446142101A8FEF7C1FA174920688842B9
:101DA00027D100BF15488069491508431349886148
:101DB0000846806949150840009000BF00BF00BF79
:101DC0000E484069090208430C49486108464069C9
:101DD000012149040840009000BF00BF0420019089
:101DE000032002900020039001A90920C00600F002
:101DF000B9FD06B010BD00000024014000100240F3
:101E0000F8B504460D466069082801D1082611E09E
:101E10002068C068C007C00F00280AD0A06B20212E
:101E20000843A06300BF00213420015500BF0120FA
:101E3000F8BD0C2600F096FE074619E0681C002845
:101E400016D0002D04D000F08DFEC01BA8420FD983
:101E500020680068304000280AD1A06B04210843A4
:101E6000A06300BF00213420015500BF0320DFE73D
:101E70002068006830400028E0D0A06B01214902B2
:101E80000843A0632068C068032189020840002835
:101E900025D1A07E002822D12068006808210840B2
:101EA00008281CD120688068042108408008002888
:101EB0000DD1206840680C21884321684860A06BE0
:101EC000FF210131884301210843A06307E0A06B93
:101ED00020210843A063E06B01210843E063207EDA
:101EE000002802D10C20216808600020A0E7000033
:101EF00070B50446002520688068042108408008E9
:101F000000282BD100BF3420005D012801D1022020
:101F100070BD01213420015500BF607E012803D02F
:101F20002046FFF767FC0546002D18D1A06B0D4930
:101F30000840FF2101310843A0630020E06300BF97
:101F400000213420015500BF1C2021680860206852
:101F50008068042108432168886000E00225284643
:101F6000D6E70000FEF1FFFF70B50446002500BF74
:101F70003420005D012801D1022070BD01213420F0
:101F8000015500BF2046FFF79DFB0546002D0CD1F3
:101F90002046FFF7D3FB0546002D06D1A06BFF219D
:101FA0000131884301210843A06300BF0021342090
:101FB000015500BF2846E0E7FFB581B004460D4655
:101FC0002020005D009020688368A868002800D168
:101FD00000E000BF0098012802D0009802287FD1BD
:101FE000012080061840002809D10120C0061840B1
:101FF000002804D1012000071840002869D00320E0
:1020000000061840010E01208840049E3060A86838
:10201000002809D128884005EE6830432668FF363D
:1020200081360F01F0510AE06868C000AE683043A5
:10203000EE6830432668FF3681360F01F0512E6975
:102040002068FF3081300F01C0194660287D0128CB
:102050000ED12068FF3081300E0180194068FF26C4
:10206000013630432668FF3681360F01F61970605D
:10207000D0790006967936043043567936023043DB
:10208000167930432668FF3681360F01F619F06065
:10209000D0780006967836043043567836023043BE
:1020A000167806432068FF3081300F01C019866022
:1020B0002068FF3081300E018059012630432668A8
:1020C000FF3681360F01F051002005B0F0BD07E06A
:1020D000FFE7606A01267605304360620120F4E77D
:1020E000606A0126B604304360620120EDE7F0B576
:1020F00004460A4621682020055D012D01D0022DED
:1021000071D10120400240580126304376027050C0
:10211000107DC606F60E0123B3408720800040588C
:1021200098438726B6007050D06900281DD18320BF
:102130008000405898438326B60070509089000470
:102140009688B6B230435669F6000927BF01CF1909
:10215000B851108900041688B6B230435669F600AB
:102160000927BF01CF19F6197060D06901281DD168
:1021700083208000405818438326B6007050108892
:1021800000049688B6B230435669F6000927BF01AD
:10219000CF19B851108900049689B6B230435669F8
:1021A000F6000927BF01CF19F61970609069002861
:1021B00007D181208000405898438126B600705096
:1021C00006E081208000405818438126B6007050F8
:1021D0001069002808D18520800040589843852642
:1021E000B600705007E01AE0852080004058184380
:1021F0008526B6007050106A012806D1872080001D
:10220000405818438726B6007050012040024058BD
:10221000460876000120400246500020F0BD606A6A
:102220000126B604304360620120F7E77047F0B53D
:1022300085B0044600252068466920684068039000
:10224000206887682068C068029020680069019053
:10225000206880690090F007C00F00286DD0F80753
:10226000C00F00281DD0012021688860022038405E
:10227000002803D0204600F07AFA12E0042038400B
:10228000002803D00120C00205430AE0082038409E
:10229000002803D001200003054302E0204600F09F
:1022A00065FAFF2001303840002820D0FF2001309F
:1022B0002168886040003840002803D0204600F0A4
:1022C00058FA14E0012080023840002803D0012091
:1022D000400305430BE00120C0023840002803D032
:1022E00001208003054302E0204600F041FA01206E
:1022F00000043840002820D00120000421688860B4
:1023000040003840002803D0204600F034FA14E0A2
:10231000012080043840002803D00120C003054379
:102320000BE00120C0043840002803D00120000445
:10233000054302E0204600F01DFA08203040002846
:1023400009D0102102980840002804D04801054314
:1023500010202168C8600420304000280AD00821DD
:1023600002980840002805D008202168C86020464F
:1023700000F0C6F902203040002808D02068C0686C
:102380008007800F002802D0204600F0BAF94020D4
:102390003040002809D0102101980840002804D0BE
:1023A0008801054310202168086120203040002862
:1023B0000AD0082101980840002805D0082021688B
:1023C0000861204600F09EF910203040002808D017
:1023D000206800698007800F002802D0204600F0A6
:1023E00092F901204004304000280AD010210398BF
:1023F0000840002805D0102021684860204600F0E1
:1024000083F901200004304000280AD008210398F5
:102410000840002805D0082021684860204600F0C8
:10242000ABF90120C0033040002860D0042103989C
:102430000840002858D088013040002806D0009875
:10244000C007C00F002801D0012005430120400231
:102450003040002806D0022100980840002801D012
:1024600002200543012080023040002806D00421CC
:1024700000980840002801D0042005430120C00234
:102480003040002830D070210098084000282BD020
:1024900000980840402815D006DC102809D02028D4
:1024A0000AD0302818D10AE050280ED0602813D165
:1024B0000EE00820054310E0102005430DE0202029
:1024C00005430AE04020054307E08020054304E07F
:1024D000FF200130054300E000BF00BF2068806995
:1024E0007021884321688861042021684860002D9C
:1024F00005D0606A284360622046FFF797FE05B06A
:10250000F0BD70B50446002C01D1012070BD202023
:10251000005D002802D1204600F0B2F82068006873
:10252000012108432168086000F01CFB05460EE00D
:1025300000F018FB401B0A2809D9606A01214904F0
:10254000084360620521202001550120DEE7206854
:102550004068C007C00F0028EAD020680068022148
:1025600088432168086000F0FDFA05460EE000F09F
:10257000F9FA401B0A2809D9606A01214904084375
:1025800060620521202001550120BFE720684068D6
:10259000022108400028EAD1207E012806D12068C7
:1025A0000068802108432168086005E02068006811
:1025B0008021884321680860607E012806D1206858
:1025C0000068402108432168086005E02068006831
:1025D0004021884321680860A07E012806D1206838
:1025E0000068202108432168086005E02068006831
:1025F0002021884321680860E07E012806D12068F8
:102600000068102188432168086005E020680068A0
:102610001021084321680860207F012806D1206826
:102620000068082108432168086005E02068006808
:102630000821884321680860607F012806D120684E
:102640000068042108432168086005E020680068EC
:102650000421884321680860E168A0680843216973
:102660000843616908436168491E08432168C861DD
:1026700000206062012120200155002046E7000073
:1026800010B586B00446142101A8FDF747FE1A498B
:10269000206888422ED100BF1848C0690121490630
:1026A00008431649C8610846C06901214906084027
:1026B000009000BF00BF00BF1048406909120843E6
:1026C0000E494861084640690121490408400090CC
:1026D00000BF00BF0320C002019002200290002032
:1026E0000390032004900420059001A90920C0064E
:1026F00000F038F906B010BD006400400010024040
:102700007047704770477047704770B50446202087
:10271000005D012823D10221202001552068006896
:10272000400840002168086000F01CFA05460EE0F1
:1027300000F018FA401B0A2809D9606A01214904EF
:1027400008436062052120200155012070BD2068EA
:102750004068C007C00F0028EAD16062F6E7606AEF
:102760000121C904084360620120EFE77047704708
:1027700070477047704770477047000070B5044657
:1027800000F0F0F906462546681C002802D00548EE
:1027900000782D1800BF00F0E5F9801BA842FAD39D
:1027A00070BD000050010020F8B504460E46012718
:1027B000002500BF2448007E012801D10220F8BD79
:1027C00001202149087600BF2068012811D11F4847
:1027D000FFF7ECF8002830D1FFF78AF81B48FFF725
:1027E000E5F807461A48006904218843184908613A
:1027F00023E01648FFF7DAF800281ED1401E3060AB
:10280000656813E02846FFF787F81048FFF7CEF811
:1028100007460F480069022188430D490861002FCF
:1028200001D0356008E0012080022D18A0688002E8
:1028300061684018A842E5D800BF00BF00200249E7
:10284000087600BF3846BAE72003002050C30000D6
:10285000002002400148C0697047000020030020AA
:10286000034800698021084301490861002070473E
:1028700000200240F0B51FB486B0074615461E463C
:102880000120039000240020029000BF2548007E14
:10289000012802D102200BB0F0BD012021490876A9
:1028A00000BF2148FFF782F803900398002831D138
:1028B000012F02D10120029006E0022F02D1022056
:1028C000029001E00420029000241FE0220128462B
:1028D000314604960595FDF771FC80B261000190C8
:1028E0000798081800900199FFF72CF80E48FFF799
:1028F0005DF803900D480069400840000B490861ED
:102900000398002800D004E0601CC4B202988442FE
:10291000DCDB00BF00BF00200249087600BF03983F
:10292000B9E700002003002050C30000002002404F
:102930000020094909698022114000290BD007496C
:10294000054A5160064951601146096980221140CB
:10295000002900D001207047002002402301674574
:10296000AB89EFCD78B503460A460021DAE00126AF
:102970008E4014683440002C7ED01579AD07AD0F21
:10298000012D04D01579AD07AD0F022D18D198682F
:102990004E000325B5400646AE4330464E00D5688E
:1029A000B54028439860586801258D400646AE43DF
:1029B00030461026556835402D098D402843586013
:1029C0001579AD07AD0F032D0BD0D8684E00032548
:1029D000B5400646AE4330464E009568B5402843A4
:1029E000D8601579AD07AD0F022D15D1CD08AE0019
:1029F0001D462035A8594D07EE0E0F25B540064659
:102A0000AE4330464E07F60E1569B5402843CD0853
:102A1000AD001E462036705118684E000325B540A3
:102A20000646AE4330461579AD07AD0F4E00B540B2
:102A3000284318600326360455683540002D70D0B1
:102A400000BF3B4DAD6901263543394EB561354672
:102A5000AD69ED07ED0F009500BF00BF354D8E0845
:102A6000B600A8598D072E0F0F25B5400646AE4378
:102A700030460925ED0600E053E0AB4201D10025C8
:102A80000AE02D4DAB4201D1012505E02B4DAB42B3
:102A900001D1022500E005258E07360FB5402843F9
:102AA000244D8E08B600A851254DA8680546A543BB
:102AB00028460126360555683540002D02D00546CA
:102AC000254328461E4DA860E8680546A5432846CC
:102AD0000126760555683540002D02D00546254370
:102AE0002846174DE86068680546A5432846012634
:102AF000760455683540002D02D00546254328460A
:102B00000F4D686028680546A5432846012636040F
:102B100055683540002D02D0054625432846084D0E
:102B20002860491C1568CD40002D00D01FE778BDF6
:102B3000001002400800014000040048000800485E
:102B400000040140024613690B40002B01D0012014
:102B500000E000207047002A01D0816100E081621E
:102B600070470000014800687047000048010020DD
:102B700002464120805C20282FD100BF4020805C8D
:102B8000012801D10220704701234020835400BF57
:102B900024234120835410680068400840001368D3
:102BA00018601068006801231B03984313681860BD
:102BB00010680068084313681860106800680123F3
:102BC00018431368186020234120835400BF00235A
:102BD0004020835400BF0020D5E70220D3E710B582
:102BE00002460B464120805C20282ED100BF4020A9
:102BF000805C012801D1022010BD012440208454B2
:102C000000BF24244120845410680068400840001C
:102C100014682060106801680F2424020846A0434D
:102C20000146180201431068016010680068012421
:102C300020431468206020244120845400BF0024D5
:102C40004020845400BF0020D6E70220D4E70000D3
:102C500010B50446002C01D1012010BD4120005DBB
:102C6000002805D1002140200155204600F00EFA31
:102C70002421412001552068006840084000216857
:102C800008600F2109066068884321680861206890
:102C900080680121C903884321688860E0680128B1
:102CA00006D10121C903A06808432168886005E0B6
:102CB00021218902A068084321688860E068022811
:102CC00007D1206840680121C90208432168486093
:102CD00006E0206840680121C902884321684860F5
:102CE0002068406814490843216848602068C0682B
:102CF0000121C90388432168C860616920690843CC
:102D0000A169090208432168C860216AE069084393
:102D10002168086020680068012108432168086074
:102D20000020606420214120015500202063002103
:102D300042200155002090E700800002FFB583B0DB
:102D400004460C9F0E9E4120005D20287ED1002F5E
:102D500002D00D98002805D10120400260640120B6
:102D600007B0F0BD00BF4020005D012801D1022066
:102D7000F6E701214020015500BFFFF7F3FE0546AD
:102D800019230122D1032046009501F05DFC0028A3
:102D900001D00120E4E722214120015540214220B9
:102DA00001550020606467620D98608500206063B3
:102DB00000960195204604A90EC901F0A7FB002842
:102DC00006D000BF00214020015500BF0120C7E709
:102DD000608DFF280CD90120208541480090208D6E
:102DE000C2B201231B062046049901F00FFC0BE040
:102DF000608D20853A480090208DC2B201235B0689
:102E00002046049901F002FC00BF33460022042151
:102E10002046009501F018FC002801D001209FE712
:102E20002068406A616A0870606A401C6062208D98
:102E3000401E2085608D401E6085608D00282BD04F
:102E4000208D002828D13346002200E045E0802173
:102E50002046009501F0F8FB002801D001207FE713
:102E6000608DFF280CD90120208500200090208D46
:102E7000C2B201231B062046049901F0C7FB0BE0F8
:102E8000608D208500200090208DC2B201235B065A
:102E90002046049901F0BAFB608D0028B5D12A467E
:102EA0003146204601F00FFC002801D0012057E7F1
:102EB00020202168C861206840680A4908402168CC
:102EC000486020214120015500214220015500BFCA
:102ED0004020015500BF002042E7022040E70000EB
:102EE0000024008000E800FEFFB583B004460C9F7C
:102EF0000E9E4120005D20287ED1002F02D00D982B
:102F0000002805D1012040026064012007B0F0BD17
:102F100000BF4020005D012801D10220F6E7012119
:102F20004020015500BFFFF71DFE05461923012271
:102F3000D1032046009501F087FB002801D0012035
:102F4000E4E7212141200155402142200155002084
:102F5000606467620D98608500206063009601954B
:102F6000204604A90EC901F011FB002806D000BFBD
:102F700000214020015500BF0120C7E7608DFF28D8
:102F80000CD9FF20208500200090208DC2B20123A3
:102F90001B062046049901F039FB0BE0608D20856B
:102FA00000200090208DC2B201235B0620460499C8
:102FB00001F02CFB00BF2A463146204601F0B6FB4B
:102FC000002801D00120A1E7606A007821688862AA
:102FD000606A401C6062608D401E6085208D401ECE
:102FE0002085608D00282BD0208D002828D13346E5
:102FF00000228021204600E043E0009501F024FB00
:10300000002801D0012081E7608DFF280CD9FF2026
:10301000208500200090208DC2B201231B0620468F
:10302000049901F0F3FA0BE0608D208500200090F8
:10303000208DC2B201235B062046049901F0E6FA16
:10304000608D0028B7D12A463146204601F03BFB6F
:10305000002801D0012059E720202168C86120689C
:1030600040680949084021684860202141200155F5
:1030700000214220015500BF4020015500BF002023
:1030800044E7022042E7000000E800FE10B586B0E9
:103090000446142101A8FDF741F91A492068884225
:1030A0002DD100BF18484069012189040843164901
:1030B000486108464069012189040840009000BF2A
:1030C00000BFC02001901220029000200390032036
:1030D00004900120059001A90C48FFF743FC00BFB4
:1030E0000948C0690121490508430749C8610846E4
:1030F000C069012149050840009000BF00BF06B02B
:1031000010BD0000005400400010024000040048C0
:10311000034800680349097840180149086070476E
:10312000480100205001002010B506480068102119
:10313000084304490860032000F006F800F02EF868
:10314000002010BD0020024070B5044610480178F0
:103150007D20C000FDF7E4F8064631460D480068C2
:10316000FDF7DEF8054600F05FFD002801D00120E4
:1031700070BD042C07D200222146501E00F03CF8FE
:103180000548046001E00120F2E70020F0E70000BC
:1031900050010020540100204C01002008B500BF60
:1031A0000D488069012108430B4988610846806900
:1031B000C007C00F009000BF00BF00BF0846C06935
:1031C000090408430449C8610846C0690904084065
:1031D000009000BF00BF08BD00100240014600295A
:1031E00005DBCB06DB0E01229A40024B1A6000BFC2
:1031F0007047000000E100E070B504460D46164639
:103200002946204601F088FF70BD0000F8B504464D
:1032100000260025012109042068084088427AD14F
:1032200000275948C0690903084000280DD100BF94
:103230005548C06908435449C8610846C069090433
:103240000840009000BF00BF012750480068FF21E0
:1032500001310840002816D14C48006808434B490A
:103260000860FFF77FFC064606E0FFF77BFC801B4B
:10327000642801D90320F8BD44480068FF210131CA
:1032800008400028F1D04048006A032109020840A4
:103290000546002D2DD060680840A84229D03A4844
:1032A000006A884305463848006A0121090408433A
:1032B000354908620846006A0121090488433249F9
:1032C000086208460562E807C00F002811D0FFF722
:1032D00049FC064607E0FFF745FC801B2C49884265
:1032E00001D90320C7E72848006A022108400028C6
:1032F000F1D02548006A0321090288436168084328
:1033000021490862012F05D10846C0690904884394
:103310001D49C86100BF2078C007C00F002807D032
:103320001948006B80088000A168084316490863AB
:10333000202120680840202807D11348006B102165
:103340008843E16808431049086301214904206863
:103350000840884207D10C48006B8021884361698E
:10336000084309490863012189022068084088420E
:1033700007D10548006B4021884321690843024971
:103380000863002077E70000001002400070004052
:103390008813000070B504460D46002C01D10120B1
:1033A00070BD58480068C007C00FA8420ED25548EB
:1033B00000684008400028435249086008460068F9
:1033C000C007C00FA84201D00120E9E70221206810
:1033D0000840022814D1042120680840042807D19D
:1033E0004948406807210902884340184649486017
:1033F00045484068F0218843A16808434249486035
:103400002078C007C00F002847D06068012808D185
:103410003D480068012149040840002821D10120CD
:10342000BEE76068022808D13748006801214906D4
:103430000840002815D10120B2E76068032808D1B0
:103440003148406B012149040840002809D101207E
:10345000A6E72D48006802210840002801D101207C
:103460009EE7294840688008800061680843264933
:103470004860FFF777FB064607E0FFF773FB801B0A
:103480002249884201D903208AE71F4840680C215D
:103490000840616889008842EFD11A480068C00777
:1034A000C00FA8420ED917480068400840002843C2
:1034B0001449086008460068C007C00FA84201D040
:1034C00001206DE7042120680840042808D10E4837
:1034D0004068072109028843E16808430A494860B7
:1034E00000F01AF808494968F02211400909084A11
:1034F000515CC840074908600320FFF725FE002003
:103500004EE7000000200240001002408813000037
:10351000D879000854010020F8B5002500240027C0
:103520000026002000902B4845680C2028400028E9
:1035300049D0042804D0082805D00C2842D13EE008
:103540002548009042E00F2080042840800C234949
:103550000E5C2048C06A0007000F21490C5C032064
:10356000C00328400121090488420AD122460023D1
:1035700019481946FCF733FE314601F09FFD074616
:103580001BE00320C00328400321C90388420AD15D
:103590002246002313481946FCF721FE314601F06C
:1035A0008DFD074609E0224600230F481946FCF727
:1035B00016FE314601F082FD0746009706E00948F5
:1035C000009003E000BF0848009000BF00BF0098D3
:1035D000F8BD00000010024040787D01B879000875
:1035E000C8790008006CDC0200127A00FEB50446BF
:1035F000002C01D10120FEBD2078C007C00F00289B
:1036000072D0FC4840680C21084004280CD0F948CE
:1036100040680840082813D1F6484068490308402C
:103620000121090488420BD1F248006801214904B4
:10363000084000286BD06068002868D10120DAE7D4
:1036400000BF6068012807D1EA4800680121090429
:103650000843E849086031E0606800280ED1E54879
:103660000068012109048843E249086008460068AF
:10367000012189048843DF4908601FE0606805284C
:103680000ED1DC480068012189040843D94908604B
:1036900008460068012109040843D64908600DE086
:1036A000D4480068012109048843D24908600846CB
:1036B0000068012189048843CE49086000BF606822
:1036C000002812D0FFF74EFA054606E0FFF74AFA47
:1036D000401B642801D903208DE7C64800680121FA
:1036E000490408400028F1D011E0FFF73BFA0546F5
:1036F00006E0FFF737FA401B642801D903207AE778
:10370000BC4800680121490408400028F1D1022189
:1037100020680840022862D1B64840680C21084061
:1037200000280CD0B3484068084008281CD1B14894
:103730004068490308400121C903884214D1AD48BB
:10374000006802210840002804D0E068012801D068
:10375000012050E7A7480068F82188432169C90083
:103760000843A44908603AE0E068002820D0A14856
:103770000068012108439F490860FFF7F3F90546F7
:1037800006E0FFF7EFF9401B022801D9032032E7DA
:1037900098480068022108400028F2D09548006847
:1037A000F82188432169C90008439249086016E05E
:1037B00090480068400840008E490860FFF7D2F941
:1037C000054606E0FFF7CEF9401B022801D9032089
:1037D00011E788480068022108400028F2D108213A
:1037E00020680840082831D1E069002817D08148B6
:1037F000406A012108437F494862FFF7B3F9054653
:1038000006E0FFF7AFF9401B022801D90320F2E6DA
:103810007848406A022108400028F2D016E0754836
:10382000406A4008400073494862FFF79BF905462B
:1038300006E0FFF797F9401B022801D90320DAE6DA
:103840006C48406A022108400028F2D10421206817
:103850000840042872D1002001906648C06989069A
:10386000084000280ED100BF6248C0690843614982
:10387000C8610846C06909040840009000BF00BF45
:10388000012001905C480068FF21013108400028B8
:1038900016D159480068084357490860FFF762F994
:1038A000054606E0FFF75EF9401B642801D90320B6
:1038B000A1E651480068FF21013108400028F1D0FD
:1038C00000BFA068012806D14A48006A01210843C8
:1038D000484908622AE0A06800280BD14548006AE0
:1038E0004108490043480162006A04218843414974
:1038F00008621BE0A06805280CD13E48006A04213C
:1039000008433C4908620846006A012108433949D6
:1039100008620BE03748006A4008400035490862F9
:103920000846006A042188433249086200BFA06843
:10393000002813D0FFF716F9054608E02BE0FFF743
:1039400011F9401B2D49884201D9032053E629482B
:10395000006A022108400028F1D011E0FFF702F9C7
:10396000054607E0FFF7FEF8411B2448814201D9D4
:10397000032040E61F48006A022108400028F1D1D8
:103980000198012806D11B48C06901210907884315
:103990001849C86100BF10212068084010285FD175
:1039A000606901282CD11348406B04210843114958
:1039B00048630846406B012108430E494863FFF7FE
:1039C000D1F8054606E0FFF7CDF8401B022801D9E3
:1039D000032010E60748406B022108400028F2D07F
:1039E0000448406BF8218843A169C9000843014994
:1039F000486335E00010024000700040881300006A
:103A00006069401D00280FD18648406B042188431F
:103A1000844948630846406BF8218843A169C9007E
:103A20000843804948631BE07E48406B04210843FB
:103A30007C4948630846406B400840004863FFF7F4
:103A400091F8054606E0FFF78DF8401B022801D9E2
:103A50000320D0E57348406B022108400028F2D1D2
:103A6000202120680840202852D16E4840680C214F
:103A700008400C280AD06B4840680840082811D13B
:103A8000684840684903084088420BD16548406B4C
:103A900001214904084000283AD0206A012837D083
:103AA0000120A8E5206A002819D05E48406B01215A
:103AB000090408435B494863FFF754F8054606E0EC
:103AC000FFF750F8401B022801D9032093E5554821
:103AD000406B0121490408400028F1D018E051480A
:103AE000406B0121090488434E494863FFF73AF8C7
:103AF000054606E0FFF736F8401B022801D90320EF
:103B000079E54848406B0121490408400028F1D17B
:103B1000606A00284FD0434840680C2108400828BC
:103B200064D0606A022847D13E4800680121090636
:103B300088433C490860FFF715F8054606E0FFF7A3
:103B400011F8401B022801D9032054E535480068CC
:103B50000121490608400028F1D100BF3148C06A60
:103B600000090001216B08432E49C862A16AE06A7E
:103B700008432C4949687B22D203914308432949D1
:103B8000486000BF0846006801210906084325492E
:103B90000860FEF7E7FF054606E0FEF7E3FF401B7F
:103BA000022801D9032026E51E48006801214906A4
:103BB00008400028F1D033E01A48006801210906C6
:103BC000884318490860FEF7CDFF054606E0FEF77A
:103BD000C9FF401B022801D903200CE511480068E9
:103BE0000121490608400028F1D119E0606A012846
:103BF00000D100E50B484668C76A0320C003304087
:103C0000A16A88420AD13907090F206B814205D188
:103C10000F2080043040E16A884201D00120EAE4AC
:103C20000020E8E40010024070B504462546681EF6
:103C30000949884201D901200CE0681E0749486102
:103C40000321081F01F068FA002004498861072059
:103C50000861002070BD0000FFFFFF0000E000E0F1
:103C60007047704710B50346002200BF3C20C05C7F
:103C7000012801D1022010BD01243C20C45400BF02
:103C8000100A0002CC682043024610460324240296
:103C9000A0438C682043024610460124A402A0439E
:103CA0004C682043024610460124E402A0430C68FD
:103CB00020430246104601242403A0430C692043FC
:103CC0000246104601246403A0434C692043024687
:103CD00010460124A403A043CC692043024618687F
:103CE000426400BF00243C20C45400BF0020C2E74F
:103CF00030B502460B4600BF3C20805C012801D154
:103D0000022030BD01253C20855400BF02253D2006
:103D10008554106844681068816870252046A8435F
:103D2000044618680443106844600F4D1068A842A8
:103D300008D00125AD071068A84203D00B4D1068CC
:103D4000A84207D180250846A84301465868014388
:103D50001068816001253D20855400BF00253C206E
:103D6000855400BF0020CCE7002C01400004004037
:103D700010B50446002C01D1012010BD3D20005D8E
:103D8000002805D100213C200155204600F022F8F2
:103D900002213D200155211D206800F0A1FF0121D5
:103DA0004620015500BF3E2001553F2001554020CF
:103DB00001554120015500BF00BF4220015543205D
:103DC0000155442001554520015500BF3D200155B6
:103DD0000020D2E77047F8B504460D460020009059
:103DE00000BF3C20005D012801D10220F8BD012167
:103DF0003C20015500BF02213D2001552068866806
:103E00007721304688430646FF2109023046884321
:103E10000646206886602868502834D00CDC2028AC
:103E200051D004DC00284CD0102852D14AE0302870
:103E30004AD040284DD13AE060282ED0702807D0D3
:103E400001210903401A02D0401A42D10DE043E09B
:103E5000EB686A68A968206800F0ABFF2068866894
:103E6000772006432068866036E0EB686A68A968B8
:103E7000206800F09EFF20688068012189030843C4
:103E80002168886028E0EA686968206801F0E4F841
:103E90005021206800F09BFF1EE0EA6869682068F6
:103EA00001F0F3F86021206800F091FF14E0EA6867
:103EB0006968206801F0D0F84021206800F087FF91
:103EC0000AE000BF00BF00BF2968206800F07FFF44
:103ED00002E00120009000BF00BF01213D200155FC
:103EE00000BF00213C20015500BF00987EE77047CD
:103EF00070B504462068C568206806690220304015
:103F0000022819D12840022816D1401F21680861D3
:103F100001202077206880698007800F002803D067
:103F20002046FFF7E4FF05E0204600F0C9F82046F0
:103F300000F0AAF9002020770420304004281AD18C
:103F40002840042817D1C043216808610220207747
:103F500020688069032109020840002803D0204618
:103F6000FFF7C5FF05E0204600F0AAF8204600F064
:103F70008BF90020207708203040082819D12840EC
:103F8000082816D1C04321680861042020772068E2
:103F9000C0698007800F002803D02046FFF7A7FFE5
:103FA00005E0204600F08CF8204600F06DF9002076
:103FB00020771020304010281AD12840102817D11F
:103FC000C04321680861082020772068C069032168
:103FD00009020840002803D02046FFF788FF05E0CB
:103FE000204600F06DF8204600F04EF900202077C2
:103FF000F007C00F00280AD0E807C00F002806D03D
:104000000120C04321680861204600F0B3F98020F8
:104010003040802808D12840802805D1C04321683D
:1040200008612046FFF71CFE40203040402808D1A0
:104030002840402805D1C04321680861204600F08F
:104040009AF920203040202808D12840202805D186
:10405000C043216808612046FFF703FE70BD0000E1
:1040600010B586B00446142101A8FCF757F912498F
:10407000206888421ED100BF1048406901214904D0
:1040800008430E4948610846406901214904084037
:10409000009000BF00BF0320400201900220029068
:1040A0000020039004900220059001A90920C00679
:1040B000FEF758FC06B010BD002C01400010024075
:1040C0007047F8B504460D461646002700BF3C2051
:1040D000005D012801D10220F8BD01213C200155DD
:1040E00000BF002E06D0042E1BD0082E33D00C2E7D
:1040F00062D147E02946206800F076FE206880699A
:104100000821084321688861206880690421884368
:10411000216888612068806929690843216888616D
:104120004CE02946206800F0ADFE2068806901213E
:10413000C9020843216888612068806901218902D9
:1041400088432168886120688069296909020843D9
:104150002168886132E02946206800F0EBFE206883
:10416000C069082108432168C8612068C06904212A
:1041700088432168C8612068C069296908432168AB
:10418000C8611BE02946206800F02AFF2068C0694A
:104190000121C90208432168C8612068C069012162
:1041A000890288432168C8612068C06929690902B9
:1041B00008432168C86101E0012700BF00BF00BFBC
:1041C00000213C20015500BF384685E710B5044664
:1041D000002C01D1012010BD3D20005D002805D13B
:1041E00000213C200155204600F022F802213D200C
:1041F0000155211D206800F073FD01214620015565
:1042000000BF3E2001553F2001554020015541206F
:10421000015500BF00BF42200155432001554420F5
:1042200001554520015500BF3D2001550020D2E732
:1042300008B5124A016891420DD100BF1049896941
:10424000D21411430E4A916111468969D21411406A
:10425000009100BF00BF0B4A016891420DD100BF21
:104260000749C96992151143054AD1611146C969C7
:1042700092151140009100BF00BF08BD002C014005
:1042800000100240002000407047000070B5044656
:104290000D46002D02D13E20005D0BE0042D02D121
:1042A0003F20005D06E0082D02D14020005D01E0C6
:1042B0004120005D012801D0012070BD002D03D1F7
:1042C00002213E2001550EE0042D03D102213F20A2
:1042D000015508E0082D03D102214020015502E0DC
:1042E00002214120015501222946206800F050FD9D
:1042F0001C492068884207D01B492068884203D0A7
:104300001A492068884201D1012000E000200028DD
:1043100006D02068406C0121C90308432168486425
:1043200010492068884208D0012189072068884206
:1043300003D00F49206888420CD120688068460766
:10434000760F062E0CD020680068012108432168F2
:10435000086005E0206800680121084321680860C2
:104360000020AAE7002C0140004401400048014021
:10437000000400407047704700BFFEE7016889698C
:10438000022211404908002902D0002102689162EE
:1043900001688969C907C90F0122514051400029AC
:1043A00004D1016889691143026891617047000076
:1043B000F7B584B004460E46002003902068876954
:1043C00000250698029010203840102854D121680A
:1043D000C8613DE0701C00283AD0FEF7C3FB02998B
:1043E000401AB04201D8002E32D120684068012125
:1043F0008903084001904220005D00902068806998
:1044000049000840C00B00280ED04910019888428E
:104410000AD00098202807D0206840680843216807
:104420004860FEF79FFB02900AE0FEF79BFB0299B3
:10443000401A192804D9202005430120039006E0E2
:10444000206880692021084040090028EDD000BF85
:1044500020688069202108404009002802D1039883
:104460000028B7D00398002802D120202168C86115
:10447000042005430120039020688769FF20013054
:104480003840FF210131884206D101200543000256
:104490002168C86101200390012080023840012179
:1044A0008902884206D108200543C0012168C861FD
:1044B0000120039001204002384001214902884236
:1044C00006D10220054300022168C8610120039043
:1044D0000398002815D02046FFF750FF2068406859
:1044E0000949084021684860606C284360642021C5
:1044F0004120015500214220015500BF40200155B7
:1045000000BF039807B0F0BD00E800FEFFB581B022
:10451000044615461E460A9F1B48F2B2002300902F
:104520002046029900F072F8394620460B9A00F0B6
:10453000FDF8002802D0012005B0F0BD012E03D106
:10454000E8B22168886211E0FF20000228400012D2
:1045500021688862394620460B9A00F0E7F8002867
:1045600001D00120E8E7E8B2216888620B983B4659
:10457000002240210090204600F066F8002801D07B
:104580000120D9E70020D7E700200080FFB581B0E7
:10459000044615461E460A9F1B48F2B2C30200900D
:1045A0002046029900F032F8394620460B9A00F076
:1045B000BDF8002802D0012005B0F0BD012E03D1C6
:1045C000E8B22168886211E0FF2000022840001252
:1045D00021688862394620460B9A00F0A7F8002827
:1045E00001D00120E8E7E8B2216888620B983B46D9
:1045F000002280210090204600F026F8002801D0FB
:104600000120D9E70020D7E700200080F8B5069CFC
:104610008D05AD0D1604FF273F043E4035431D4375
:1046200025436D006D08009505686E68650D0127CE
:10463000BF023D40034F3D43AE43009D2E430568FE
:104640006E60F8BDFF63FF03F8B504460D461746DC
:104650001E462CE031462046069AFFF7A9FE0028A8
:1046600001D00120F8BD701C002820D0FEF77AFA96
:104670000699401AB04201D8002E18D120688069EE
:104680002840A84201D1012000E00020B8420ED10C
:10469000606C2021084360644120015500214220C4
:1046A000015500BF4020015500BF0120DAE7206816
:1046B00080692840A84201D1012000E00020B842D2
:1046C000C8D00020CEE770B504460D46164624E05B
:1046D000324629462046FFF76BFE002801D0012014
:1046E00070BDFEF73FFA801BA84201D8002D14D1FF
:1046F0002068806920210840400900280DD1606CA5
:10470000084360644120015500214220015500BF4B
:104710004020015500BF0120E2E720688069202188
:10472000084040090028D3D00020D9E770B50446DE
:104730000D46164628E0324629462046FFF738FE49
:10474000002801D0012070BD681C00281CD0FEF795
:1047500009FA801BA84201D8002D15D12068806974
:1047600002210840400800280ED1606C2021084337
:1047700060644120015500214220015500BF4020C6
:10478000015500BF0120DEE7206880690221084052
:1047900040080028CFD00020D5E700000EB500204B
:1047A0000090019002901848184908600020486065
:1047B000002116488160C16001210161042141612D
:1047C0000021017641768176C176FF21C231C16137
:1047D0000021016224300170012124388162FDF73B
:1047E000F3F9002801D0FDF77FF802200090C00205
:1047F00001900004029069460448FDF70BF9002877
:1048000001D0FDF771F80EBD002401409C0100208D
:1048100010B51C481C4908600C20486000211A484B
:104820008160C160032189040161012109054161A1
:104830000021017641768176C17601774177FDF7D7
:1048400060FE002801D0FDF74FF800200F494861B5
:1048500088610120C8610020086048608860C860E5
:104860000861012008620848FDF741FC002211465A
:104870001E20FEF7C1FC1E20FEF7B0FC0248FDF72B
:1048800044FF10BD00640040DC0100200402002051
:1048900000B587B0142102A8FBF740FD00BF3948DE
:1048A0004069012189050843364948610846406945
:1048B000012189050840019000BF00BF00BF3148B9
:1048C0004069491108432F49486108464069012160
:1048D00049040840019000BF00BF00BF294840695B
:1048E0004900084327494861084640690121890475
:1048F0000840019000BF00BF002223490920C006E4
:10490000FEF729F900221B212048FEF724F96B202D
:10491000029000200390049002A90920C006FEF72F
:1049200021F82020029000200390049002A917484B
:10493000FEF718F81448029001200390002004901C
:10494000059002A90920C006FEF70CF81B20029072
:104950000120039000200490059002A90B48FEF767
:1049600001F8C02002901220039000200490032040
:1049700005900120069002A90448FDF7F3FF07B057
:1049800000BD0000001002409081000000040048BB
:1049900010B51848184908601848486000211648A2
:1049A00081600121C1600021016141618161C161BA
:1049B0000162FEF74DF9002801D0FCF795FF0021B8
:1049C0000D48FEF7D5F8002801D0FCF78DFF002137
:1049D0000948FEF704F9002801D0FCF785FF00BF65
:1049E000074800680121090508430549086000BF20
:1049F00010BD0000005400402C0200202B1D2000A0
:104A00000000014000B597B000BF44488069012113
:104A1000C90208434149886108468069C9140840B1
:104A2000019000BF00BF00201390149015901690C5
:104A3000119012901C210AA8FBF770FC202102A8FB
:104A4000FBF76CFC364837490860002048600021BD
:104A5000344881603449C160002101614161816154
:104A6000FFF786F9002801D0FCF73EFF0120000384
:104A7000139013A92B48FFF7AEF9002801D0FCF7DB
:104A800033FF2848FFF7A2FB002801D0FCF72CFFDA
:104A900000201190129011A92248FFF729F900284F
:104AA00001D0FCF721FF60200A9000200B900C90B1
:104AB0000D900E900F90109004220AA91948FFF74C
:104AC00000FB002801D0FCF70FFF08220AA91548B7
:104AD000FFF7F7FA002801D0FCF706FF002002904C
:104AE0000390049005900690012040030790002059
:104AF000099002A90B48FFF7B5F8002801D0FCF790
:104B0000F3FE0848FFF7ACFA04210648FFF7BEFBA6
:104B100008210448FFF7BAFB17B000BD001002409F
:104B2000002C0140800200207F0C000000BFFEE747
:104B300070B5059D049C0160426083600026C660DC
:104B4000066146614662C461056270BDF0B585B01C
:104B500004460E4617461D462D480078C009002819
:104B600004D00021284602F005FE02D1606A05B09B
:104B7000F0BD3946304602F0B7FEE060E1682068DB
:104B800002F022FE03902946E06802F01DFE02902A
:104B9000616902F0A9FD60610121C907E06948402F
:104BA0000290E169606900F0FEFE0190029900F058
:104BB000E7FE60612169E06802F096FE29460290F6
:104BC000FCF71CFAA061A169A06802F0FDFD02904B
:104BD0006169606802F0F8FD0090039902F084FDBD
:104BE0000190029902F080FD60620121C907206AEC
:104BF00048400290216A606A00F0D5FE0190029957
:104C000000F0BEFE6062E0682061606AAFE700000D
:104C10009A0000207047704710B5FEF779FA0B48EC
:104C20000078401C0949087008460078322806DDE3
:104C30000020087006480088401C0549088001F0E3
:104C4000AFFD0449088800F099FD10BD2600002042
:104C5000240000209800002000B597B034210AA855
:104C6000FBF75CFB00200690079008900990182144
:104C70006846FBF753FB30200A90012012900F90FA
:104C800010201090002013900AA8FEF7AFFC002817
:104C900001D0FCF729FE0720069003200790002092
:104CA00008900990012106A8FEF774FB002801D0A6
:104CB000FCF71AFE20200090102003906846FEF7B3
:104CC000A5FA002801D0FCF70FFE17B000BD704711
:104CD00010B50248FFF70CF910BD0000C802002013
:104CE00010B50268254B984206D001239B079842D5
:104CF00002D0234B984205D170241346A3431A4691
:104D00004B681A431D4B98420FD001239B079842D2
:104D10000BD01B4B984208D01A4B984205D01A4B27
:104D2000984202D0194B984206D10324240213461C
:104D3000A3431A46CB681A4380241346A3434C6905
:104D400023431A4602608B68C3620B6883620B4B75
:104D5000984205D00C4B984202D00C4B984201D19E
:104D60000B690363012343610369DB07DB0F002B3E
:104D700003D003695B085B00036110BD002C014098
:104D80000004004000200040004401400048014071
:104D900070B5CD06ED0E0124AC402346046A9C4359
:104DA0000462046ACE06F60E1546B5402C43046232
:104DB00070BD70B50C468168FF2636020D46B543BE
:104DC00029461D02154325432943816070BD10B556
:104DD0000A46816870240B46A343194607231343F0
:104DE0001943816010BD000070B5026A056A6D0844
:104DF0006D0005624368846970262546B5432C46DC
:104E0000A408A4000D682C4302261546B5432A4683
:104E10008D682A43184DA84200D107E0174DA842DB
:104E200000D103E0164DA8420AD100BF082615465E
:104E3000B5432A46CD682A4304261546B5432A467B
:104E40000D4DA84205D00D4DA84202D00C4DA842F0
:104E50000CD1FF2601361D46B5432B4676001D4674
:104E6000B5432B464D692B438D692B4343608461C9
:104E70004D684563026270BD002C01400044014052
:104E80000048014070B5026A056A1026B543056204
:104E900043688469072636032546B5432C46032616
:104EA00036022546B5432C460D682D022C4320269C
:104EB0001546B5432A468D682D012A431A4DA8424E
:104EC00000D107E0194DA84200D100BF184DA842FB
:104ED0000BD10AE080261546B5432A46CD682D0140
:104EE0002A4340261546B5432A460F4DA84205D011
:104EF0000E4DA84202D00E4DA8420ED10126B60298
:104F00001D46B5432B4676001D46B5432B464D69DD
:104F1000AD002B438D69AD002B43436084614D6828
:104F20008563026270BD0000002C01400044014016
:104F30000048014070B5026A056AFF260136B54394
:104F400005624368C46970262546B5432C46A4080B
:104F5000A4000D682C43012676021546B5432A4667
:104F60008D682D022A431B4DA84200D107E01A4D3F
:104F7000A84200D100BF194DA8420CD10BE0012678
:104F8000F6021546B5432A46CD682D022A4376100F
:104F90001546B5432A460F4DA84205D00E4DA842EE
:104FA00002D00E4DA8420ED1012636031D46B54350
:104FB0002B4676001D46B5432B464D692D012B43EC
:104FC0008D692D012B434360C4614D68C563026246
:104FD00070BD0000002C0140004401400048014029
:104FE00070B5036A056A01263603B5430562446855
:104FF000C269072636031546B5432A4603263602FC
:105000001546B5432A460D682D022A43012676032C
:105010001D46B5432B468D682D032B430B4DA842EF
:1050200005D00B4DA84202D00A4DA84207D1012657
:10503000B6032546B5432C464D69AD012C4344606B
:10504000C2614D680564036270BD0000002C014020
:10505000004401400048014070B50B461446026A06
:10506000056A6D086D0005628169F0260D46B5433D
:105070002946250129430A261546B5432A461546E1
:105080001D432A468161026270BD70B50B4614460D
:10509000026A056A1026B543056281690F26360348
:1050A0000D46B543294625032943A0261546B54399
:1050B0002A461D012A438161026270BDF8B582B2A1
:1050C0008BB2040C0D0C10465843002126465E435B
:1050D000370C36048019794116466E43370C360476
:1050E0008019794126466E438919F8BD4900CA02E4
:1050F0000243100000D004204A0D01D001221043C9
:10510000044A490D914201D102210843012800D1EE
:1051100005207047FF07000010B5002819DB1A4A68
:1051200003231B02D21883089B00D2588307DC0E8E
:10513000FF23A3409A438B071B0E8407E40EA34072
:105140001A43114B032424021B198408A4001A518A
:1051500018E00E4A03071B0F083B9B089B00D25820
:105160008307DC0EFF23A3409A438B071B0E8407A3
:10517000E40EA3401A43054B0407240F083CA4087F
:10518000A4001A5110BD000000E100E01CED00E099
:10519000F8B504464F1EC8000838211815461E46AB
:1051A000086849683A4606239A4310D02A4633468F
:1051B000FBF7D6FD3A46D200083AA3181A687F1EBC
:1051C0005B68FBF717FB06223B469343EED1022FA9
:1051D00023D0042F11D0062F2FD12A463346FBF7B8
:1051E000BFFDE36AA26AFBF705FB2A463346FBF7DD
:1051F000B7FD636A226AFBF7FDFA2A463346FBF7DE
:10520000AFFDE369A269FBF7F5FA2A463346FBF7DF
:10521000A7FD63692269FBF7EDFA2A463346FBF7DF
:105220009FFDE368A268FBF7E5FA2A463346FBF7E1
:1052300097FD63682268FBF7DDFAF8BD10B501221F
:10524000FCF74CF810BD0000034A10B50020110710
:10525000FCF744F810BD000001FDFFFFF0B589B078
:1052600004460D464800069172494008884215DB05
:105270007149884203DC884207D1002C05D02046C2
:105280002946FFF7DBFF09B0F0BD6C48002D02DDB9
:105290006B4909B0F0BD6B4909B0F0BD6A4988425D
:1052A00011DA6A4988420BDA20462946FFF71EFFC9
:1052B000042801D1FFF7C8FF2046294609B0F0BDF8
:1052C0000026F6435DE06D0061496D08884232DAE0
:1052D0006049884219DA0026012332469B0720469E
:1052E0002946FBF787FA0746019101222046294605
:1052F000FBF7F4FF0022584BFBF789FA3A46019B73
:10530000FBF7A8FA04460D463BE001260022524B6B
:1053100020462946FBF76EFA0746009100224E4BC5
:1053200020462946FBF773FA3A46009BFBF792FAB0
:1053300004460D4625E04949884219DA0226002232
:10534000474B20462946FBF70BFD0022424BFBF75B
:1053500051FA074602910022414B20462946FBF7AD
:1053600056FA3A46029BFBF775FA04460D4608E0EA
:10537000032622462B4600203A49FBF76BFA0446E7
:105380000D4622462B4610461946FBF7E9FC074618
:105390000B4602460191FBF7E3FC024602903248BD
:1053A0000B46039106217844FFF7F2FE3A46019B33
:1053B000FBF7D6FC00902D48019105217844039B12
:1053C000029AFFF7E5FE039B029AFBF7C9FC02462F
:1053D0000B4601990098002E0BDAFBF70BFA2246D8
:1053E0002B46FBF7BDFC22462B46FBF71BFA09B008
:1053F000F0BDFBF7FFF922462B46FBF7B1FC1C4A38
:10540000F6007A4493191A685B68FBF700FA2246A3
:105410002B46FBF7FCF9174A7A4493191A685B6824
:10542000FBF700FA069A002AE1DA0122D20751407E
:1054300009B0F0BD000010440000F07F182D445466
:10544000FB21F93FFB21F9BF0000DC3F0000203EBB
:105450000000F33F0000E63F0000F03F0080034003
:105460000000F83F0000F0BF6E270000302700006A
:10547000CA2600009426000010B542480078800635
:10548000C00F002800D110BD16E03F480088401C26
:105490003D49088008460088FF21F53188420BDB32
:1054A000002039490880374800781021884310309F
:1054B0003449087001F0D8FF08210920C006FDF723
:1054C00041FB002801D1012400E000240121092032
:1054D000C006FDF737FB012800D100E00020204086
:1054E00028490978C906C90F0122514008400028FF
:1054F000CBD116E024480088401C23490880084688
:105500000088FF21F53188420BDB00201E4908800E
:105510001C4800781021884310301A49087000F0A8
:1055200037F808210920C006FDF70CFB002801D13F
:10553000012400E0002402210920C006FDF702FB3F
:10554000012800D100E0002020400E490978C9065A
:10555000C90F0122514008400028CBD109480078EA
:10556000C006C00F002804D001200849087001F0CF
:105570001FFF04480078102188430249087000BFCB
:1055800081E700009A000020300100201C0000206C
:1055900010B585E00220FDF7F1F800F04BFD6F48F3
:1055A0000068401C6D490860012208216C48FDF725
:1055B000D2FA0122D1030920C006FDF7CCFA192046
:1055C0008001684988630020C86301221021644873
:1055D000FDF7C1FA64480021415E002901DD012088
:1055E00000E00020604900228A5E1E2A01DB0121C2
:1055F00000E000210840002806D000215B488176A9
:1056000000205A49087651E057480021415EC80FF2
:10561000554A0021515E1D22D243914201DC0121F5
:1056200000E000210840002806D000214F48817684
:1056300001204E49087639E04D480021415E00299D
:1056400001DD012000E00020494900228A5E1E2A77
:1056500001DB012100E000210840002806D00121E3
:10566000424881760020414908761FE040480021E9
:10567000415EC80F3E4A0021515E1D22D243914235
:1056800001DC012100E000210840002806D00121B2
:105690003648817601203549087607E000F0FAFDAA
:1056A0002E4800683349884200DC73E700BF0122BE
:1056B00008212B48FDF74FFA0122D1030920C0062B
:1056C000FDF749FA002027498863C86301221021A9
:1056D0002348FDF740FA21E00220FDF74FF800F0E3
:1056E000A9FC1E480068401E1C49086001220821D0
:1056F0001B48FDF730FA0122D1030920C006FDF74F
:105700002AFA00201749886319208001C863012202
:1057100010211348FDF71FFA00F0BCFD0F48006888
:105720000028D9DC012208210D48FDF714FA0122D6
:10573000D1030920C006FDF70EFA0020094988634D
:10574000C863012210210648FDF705FA0A480078CF
:10575000022188430849087010BD00004401002060
:1057600000040048002C01402000002058010020C7
:1057700022000020B88800009B00002070B505467C
:1057800000261DE00120C0032840002805D001228A
:1057900002214848FDF7DFF904E0002202214548D4
:1057A000FDF7D9F96804050C002201214148FDF7F5
:1057B000D2F9012211463F48FDF7CDF9701CC6B25F
:1057C000102EDFDB012280210920C006FDF7C3F97E
:1057D000002280210920C006FDF7BDF900243648CB
:1057E0000078002801D001200443344800780028C4
:1057F00001D00220044332480078002801D0042060
:10580000044330480078002801D0082004432E4883
:105810000078002801D0102004432C48007800288C
:1058200001D0202004432A480078002801D04020DD
:10583000044328480078002801D0802004432648EB
:105840000078002802D0FF2001300443234800786C
:10585000002802D00120400204432148007800289B
:1058600002D00120800204431E480078002802D0A4
:105870000120C00204431C480078002802D0012007
:105880000003044319480078002802D00120400397
:10589000044317480078002802D001208003044305
:1058A00014480078002802D00120C00304431248A5
:1058B000048070BD000400480400002005000020A2
:1058C000060000200700002008000020090000203A
:1058D0000A0000200B0000200C0000200D0000201A
:1058E0000E0000200F0000201000002011000020FA
:1058F00012000020130000209800002030B589B06D
:1059000004461A4801681A4800686430814201D28E
:1059100009B030BD154800681549086000200390A3
:1059200004200290022004900D220A21204600F05B
:105930007DFD01900121684601770E490E480068FF
:1059400001F042FF0546FBF72FFCC1B268464177E4
:1059500006AB07AA69460948FCF72EFB002802D0CF
:105960000120FCF70BFF00BFD2E700004801002038
:105970000C010020000020412C000020DC01002050
:1059800070B50C460546FBF759FD000F022806D0FE
:105990006000FF214008C905081AC00F01D0284641
:1059A00070BD204670BD70B50C460546FBF746FD40
:1059B000000F082806D06000FF214008C905081A1A
:1059C000C00F01D0284670BD204670BDF0B597B01D
:1059D00000201590149013901290119010907D203B
:1059E000C00006210EAA01230092019102903B22E1
:1059F000D0218F48FDF7A2F908A8007E010208A86F
:105A0000407E014308B2149008A8807E010208A8D5
:105A1000C07E014308B2159008A8007F010208A8C3
:105A2000407F014308B2139008A8007E010208A835
:105A3000407E014308B27F49086008A8807E0102C9
:105A400008A8C07E014308B27B49086008A8007F0F
:105A5000010208A8407F014308B2784908607D2010
:105A6000C00006210EAA0123009201910290432258
:105A7000D0216F48FDF762F908A8007E010208A84E
:105A8000407E014308B2119008A8807E010208A858
:105A9000C07E014308B2129008A8007F000208A946
:105AA000497F084300B210901298FBF7B9FB0D90A4
:105AB000FBF77AFA06460022614BFAF7CBFE044662
:105AC000FAF7DEFC5F4908601198FBF7A9FB0D901F
:105AD000FBF76AFA06460022594BFAF7BBFE04466A
