:020000040800F2
:10000000980900204901000869400008A13800084B
:1000100000000000000000000000000000000000E0
:100020000000000000000000000000005341000834
:100030000000000000000000514100085541000888
:1000400079010008790100087901000879010008A8
:100050007901000879010008790100087901000898
:100060007901000879010008790100087901000888
:100070007901000879010008790100087901000878
:100080007901000800000000000000000D42000897
:1000900000000000790100087901000879010008DA
:1000A00000000000790100087901000879010008CA
:1000B00079010008000000002D0C000879010008FB
:1000C00000F002F800F030F80CA030C8083824180E
:1000D0002D18A246671EAB4654465D46AC4201D180
:1000E00000F022F87E460F3E0FCCB6460126334282
:1000F00000D0FB1AA246AB4633431847506C0000B1
:10010000706C00000023002400250026103A01D363
:1001100078C1FBD8520700D330C100D50B607047BF
:100120001FB51FBD10B510BD00F0EEFB1146FFF767
:10013000F7FF05F025FB00F006FC03B4FFF7F2FF24
:1001400003BC00F037FC00000F4880F308880F481C
:100150000168090E0E4A914205D10E480E49016010
:100160000E480F4901600F4880470F480047FEE7DF
:10017000FEE7FEE7FEE7FEE7FEE700000B480C495E
:100180000C4A0D4B70470000980900200400000045
:100190001F00000018100240010000000000014094
:1001A000000000000B420008C10000089803002076
:1001B00098090020980500209805002010B5202AF5
:1001C00004DB0846203AD040002110BD0B46202415
:1001D000D340D040A21A91400843194610BDFEB545
:1001E000054610460C46184373D0AE468C46002098
:1001F000AD1A01469C4167D36646002701243D465F
:10020000B61A9D4102D313463A46212465467646E6
:100210002F04360C3E432D0CB61A9D4104D3150C09
:100220001B042B4312041034654676462F06360A0B
:100230003E432D0AB61A9D4104D3150E1B022B43D3
:1002400012020834654676462F0736093E432D09CB
:10025000B61A9D4104D3150F1B012B431201241D17
:1002600065467646AF07B6083E43AD08B61A9D41CF
:1002700004D3950F9B002B439200A41C6546764641
:10028000EF0776083E436D08B61A9D411AD39218BF
:100290005B41641C16E00018764665464941B71A72
:1002A0009D410191009009D36046B11A98418E4654
:1002B0008446009801990025401C6941DD075208D9
:1002C0002A435B08641EE6D57246634603B0F0BD60
:1002D000FFE700200146C046C0462A462346F5E710
:1002E00001E004C0091F0429FBD28B0701D502805D
:1002F000801CC90700D00270704700290BD0C307CB
:1003000002D00270401C491E022904D3830702D583
:100310000280801C891EE3E70022EEE70022DFE76F
:10032000002203098B422CD3030A8B4211D30023F2
:100330009C464EE003460B433CD4002243088B42CC
:1003400031D303098B421CD3030A8B4201D3944659
:100350003FE0C3098B4201D3CB01C01A524183094C
:100360008B4201D38B01C01A524143098B4201D306
:100370004B01C01A524103098B4201D30B01C01A31
:100380005241C3088B4201D3CB00C01A52418308AB
:100390008B4201D38B00C01A524143088B4201D3D8
:1003A0004B00C01A5241411A00D201465241104638
:1003B00070475DE0CA0F00D04942031000D34042AD
:1003C000534000229C4603098B422DD3030A8B42E3
:1003D00012D3FC22890112BA030A8B420CD3890181
:1003E00092118B4208D3890192118B4204D3890167
:1003F0003AD0921100E08909C3098B4201D3CB01A5
:10040000C01A524183098B4201D38B01C01A524159
:1004100043098B4201D34B01C01A524103098B425D
:1004200001D30B01C01A5241C3088B4201D3CB0048
:10043000C01A524183088B4201D38B00C01A52412B
:10044000D9D243088B4201D34B00C01A5241411A02
:1004500000D20146634652415B10104601D3404230
:10046000002B00D54942704763465B1000D34042E1
:1004700001B50020C046C04602BD704770477047B6
:10048000F0B5FF252D04C609C209FF2704462E40FA
:100490000137CB093E4348402A402B400746002AFB
:1004A0006BD0002B69D0AA4267D0AB4265D0002840
:1004B00000DA32460125ED0529432C4309022002CA
:1004C000090AD21A4B0C7F24E31A434C000A7C44DD
:1004D000E35C7D242404121914145B00A2188842E2
:1004E00001D3521C00E0400049420C465C432411F9
:1004F0005C43DB016415E318040A5C43C502200D6C
:100500000C4644436419250A5D432303EC0C0D4655
:10051000654300030019EB184C42A34201D35B185A
:10052000401CD4052018002B07D05B00C91804D349
:10053000401C002901D1400840003F2189048A4223
:1005400009D3002A08DC1106090F04D0032149074A
:100550004018C00FC007F0BD0122410012068918E3
:100560007F2252069142F6D205214907C84201D5A1
:100570009010F0BDFF20C005F0BD002F00DA32461C
:100580001648AA4207D2AB4205D21902090E17D06B
:10059000F80FC007F0BDFF2563002D06AB42F9D868
:1005A0004900A942F6D8AB4201D1A942F2D0A942F2
:1005B00001D1002101E061004908D0050843F0BDE8
:1005C0001102090EFBD0FF200243D005F0BD0A4600
:1005D0000146104654E700003A6800000000C07F62
:1005E00010B501469E240002CA15A307002A02D0B6
:1005F0001843002A04DBA21A002A0CDDD04010BDEB
:100600001206120E01D140004008A21A03D4D040B5
:1006100040420028F3DDFF2248001206904201D933
:10062000002010BDC817C043584010BD0102C215BC
:1006300004D00123DB071943002A0ADB9E239A1A00
:1006400002D40846D0407047FF2241001206914272
:1006500001D900207047C017C04370471F22030C08
:1006600002D10F2200041CD0030E01D10002083A6F
:10067000030F01D10001121F830F01D18000921ED0
:10068000002801DB4000521ED205511802125118F9
:100690001922904004D3491C002801D1490849007F
:1006A00008467047C10FC90700D040420122920797
:1006B0001143D3E701218907D0E710B500F0DAF83C
:1006C000006810BD10B5044600F0D4F8046010BDF9
:1006D000F8B5064601270E43FF0509220546F41B1F
:1006E00012070D43D300F619002D1CDB002E09DB89
:1006F000002C24DB401A02D3EFF300800AE0EFF372
:1007000000800BE0F84234D4F94232D4401A03D3CB
:10071000EFF30080904303E0EFF300809043184331
:1007200080F30088F8BD002E11DA002C07DA081AD1
:1007300002D3EFF30080EDE7EFF30080EEE7001A5D
:1007400002D3EFF30080E5E7EFF30080E6E7012452
:10075000450024066D42A5420BD94D006D42A542CD
:1007600007D9081A02D3EFF30080D3E7EFF3008034
:10077000D4E7024A00F004F8F8BD000009001004B4
:1007800010B5FF231B0644009C421DD84C009C4220
:100790001AD80346124A0B4307D4401A02D3EFF388
:1007A000008010BDEFF3008010BD081A06D2EFF3F1
:1007B000008001219043C907084302E0EFF3008065
:1007C000904380F3008810BD0D231B041A4204D00F
:1007D0001146002000F052F810BD00F067F810BD7F
:1007E0000000009030B5C30D1906214A090E31D022
:1007F000FF292FD000283ADB0102500201430120DB
:100800007D33C34000D24908012080071724091A0C
:100810002406490882102343FF252D064C00211A87
:1008200004D4891A02D45400201800E0214652084A
:100830005B19F3D51A220446944007D382068A42F4
:1008400003D180218030884300E08030C009D90581
:10085000081830BDFF2904D04100FAD0C00FC007EE
:1008600030BD410201D0104630BD0028FCDAFAE765
:100870000000C07F0048704738030020C80212D52E
:100880004803400F002804D0C803C043012188401A
:100890007047EFF3008000010009032109070843B6
:1008A00080F30088704700207047000010B50248B0
:1008B00000F051F810BD00000000C07F10B5FF220D
:1008C000C30D134009D05A4007D0914205DA5C426B
:1008D000A14202DDC905081810BDC40FE407002BB2
:1008E00006D0002A06D0002902DBFF20C005044301
:1008F000204610BD4102FCD0004810BD0000C07F62
:1009000000487047380300207546FFF7F9FFAE46F0
:10091000050069465346C008C000854618B020B59A
:10092000FFF72CFC60BC00274908B6460026C0C56E
:10093000C0C5C0C5C0C5C0C5C0C5C0C5C0C5403D97
:1009400049008D46704710B50446C046C046204653
:10095000FFF7F3FB10BD10B50C461107090F09296D
:1009600004D00A290AD008290CD104E01146082035
:10097000FFF784FF06E0510606D501E0510601D5D8
:100980000120C007214610BDD10607D50101090984
:10099000CC084907000E0006044309E0410F20027D
:1009A0004907000A0143200E00061D22D1410143E0
:1009B0000846E7E701491820ABBEFEE72600020023
:1009C000704770B58C180578401C6B075B0F01D120
:1009D0000378401C2A1106D10278401C03E00678F7
:1009E000401C0E70491C5B1EF9D12B0705D4002357
:1009F000521E0DD40B70491CFAE70378401CCB1A29
:100A0000921C03E01D780D70491C5B1C521EF9D529
:100A1000A142D8D3002070BD70B5044600252068DF
:100A2000806804210840800800282FD02068806852
:100A3000084004280BD12068806802210840002863
:100A400005D120688068102108432168886001F082
:100A50001DFB054614E001F019FB401B02280FD9CD
:100A60002068806804210840002809D0A06B10216C
:100A70000843A063E06B01210843E063012070BDDF
:100A800020688068042108400028E4D10020F6E7AF
:100A900070B504460025206880688007800F012813
:100AA0000ED120680068C007C00F002806D120685A
:100AB000C0680121C9030840884201D1012000E03B
:100AC000002000283DD020688068052108400128CA
:100AD00000D100E0002000280AD000BF2068806814
:100AE000022108432168886003202168086009E02A
:100AF000A06B10210843A063E06B01210843E06371
:100B0000012070BD01F0C2FA054614E001F0BEFA02
:100B1000401B02280FD920688068C007C00F00283A
:100B200009D0A06B10210843A063E06B01210843AA
:100B3000E0630120E5E720688068C007C00F002857
:100B4000E4D10020DDE7000038B504460025002090
:100B50000090206880688007800F01280ED12068EF
:100B60000068C007C00F002806D12068C0680121B6
:100B7000C9030840884201D1012000E0002000287C
:100B80004CD12068806826490840002801D1012006
:100B900000E00020002809D1A06B10210843A063C9
:100BA000E06B01210843E063012038BD20688068C4
:100BB00001210843216888601A491B480068FFF733
:100BC000AFFB009002E00098401E009000980028C3
:100BD000F9D101F05BFA054617E001F057FA401B26
:100BE000022812D920680068C007C00F01214840C0
:100BF0004840002809D1A06B10210843A063E06B96
:100C000001210843E0630120CFE720680068C007A6
:100C1000C00F0121484048400028DED00020C4E732
:100C20001700008040420F005801002010B5024814
:100C300000F07AFD10BD0000D401002072B600BFA4
:100C4000FEE7000000200749C86107480069042149
:100C500008430549086108460069402108430249E4
:100C60000861704718030020002002400021084A54
:100C7000D1610849096902221143064A11611146EE
:100C80004861096940221143024A1161704700001E
:100C900018030020002002400022054BDA61054ABB
:100CA000126901231A43034B1A6101807047000047
:100CB000180300200020024000200F49C9681022BC
:100CC0001140102907D10D49C969022211430B4A6D
:100CD000D161102108430849C96804221140042940
:100CE00007D10649C96901221143044AD16104218F
:100CF00008430149C86070470020024018030020E3
:100D000070B5044601F0C2F905460BE0601C0028EE
:100D100008D0002C04D001F0B9F9401BA04201D941
:100D2000032070BD0F48C068C007C00F0028EDD178
:100D30000C48C06820210840202801D10949C8601A
:100D40000848C06810210840102805D00548C06830
:100D500004210840042803D1FFF7AEFF0120E0E79B
:100D60000020DEE700200240F8B504460D460026CC
:100D70000020009001210907E06A884215D0E06A4E
:100D8000012812D0E06A02280FD0E06A03280CD0B4
:100D9000E06A042809D0E06A052806D0E06A06283F
:100DA00003D0E06A072800D000BF00BF3420005DF8
:100DB000012801D10220F8BD01213420015500BFD6
:100DC0002068806804210840800800287ED14D49B1
:100DD0006868884264D02068806A2A78012191403E
:100DE00008432168886201210907E06A884229D006
:100DF000E06A012826D0E06A022823D0E06A0328AE
:100E000020D0E06A04281DD0E06A05281AD0E06AE4
:100E1000062817D0E06A072814D0A8682168496915
:100E20004907490F88420DD020684069C008C000BA
:100E30002168486120684069297A4907490F0843B9
:100E4000216848612868102805D02868112802D038
:100E5000286812284FD12C4880682968102901D1B0
:100E6000C90407E02968112902D10121890501E09F
:100E700001210906084324498860286810283AD1CE
:100E8000224923480068FFF74BFA0A2148430090A3
:100E900002E00098401E009000980028F9D12AE056
:100EA0002068816A2A78012090408143206881620D
:100EB0002868102805D02868112802D02868122830
:100EC00019D1114880682968102900E00EE001D18D
:100ED000C90407E02968112902D10121890501E02F
:100EE0000121090688430849886004E0A06B20219D
:100EF0000843A063012600BF00213420015500BF34
:100F0000304658E7011000000027014040420F0022
:100F10005801002001460868006C704770B504460F
:100F200000260025002C01D1012070BDA06B0028F7
:100F300006D1E063002134200155204600F0D0F8AE
:100F4000A06B1021084000287ED1002EFCD1206823
:100F500080680421084080080028F5D1A06B890131
:100F6000884302210843A063206880688007800FBF
:100F700001280DD120680068C007C00F002805D1E6
:100F80002068C06889030840884201D1012000E040
:100F9000002000280FD12068C06818218843A1686C
:100FA00008432168C8602068006980008008616883
:100FB0000843216808612068C068474908402168E3
:100FC000C860207E8003617EC9030843A17E490377
:100FD0000843A16A012902D00121090300E0002190
:100FE0000843E16808432169022901D1042100E096
:100FF000002108432421095D490008430543E07EA0
:1010000001280ED1A07E002803D101200004054351
:1010100007E0A06B20210843A063E06B0121084397
:10102000E063FF21C231E069884203D0216AE069B0
:10103000084305432068C06828432168C86001212F
:101040000907E06A884200E03EE014D0E06A012827
:1010500011D0E06A02280ED0E06A03280BD0E06AC3
:10106000042808D0E06A052805D0E06A062802D0E6
:10107000E06A07280DD120684069C008C0002168D7
:10108000486120684069A18D4907490F08432168DC
:1010900048612068C06811490840A84208D1002072
:1010A000E063A06B0221884301210843A06310E0A4
:1010B000A06B0221884310210843A063E06B01214B
:1010C0000843E063012604E0A06B10210843A063FD
:1010D0000126304629E700001902FEFFE7FF3F83A3
:1010E00010B586B00446142101A8FFF717F9174977
:1010F0002068884227D100BF1548806949150843F8
:10110000134988610846806949150840009000BF6E
:1011100000BF00BF0E484069090208430C494861FE
:1011200008464069012149040840009000BF00BF03
:1011300004200190032002900020039001A90920BF
:10114000C00600F0A3FE06B010BD00000024014060
:1011500000100240F8B504460D466069082801D128
:10116000082611E02068C068C007C00F00280AD018
:10117000A06B20210843A06300BF0021342001554B
:1011800000BF0120F8BD0C2600F080FF074619E0E3
:10119000681C002816D0002D04D000F077FFC01B7B
:1011A000A8420FD920680068304000280AD1A06BFF
:1011B00004210843A06300BF00213420015500BF73
:1011C0000320DFE72068006830400028E0D0A06BF3
:1011D000012149020843A0632068C06803218902F5
:1011E0000840002825D1A07E002822D12068006870
:1011F0000821084008281CD1206880680421084084
:10120000800800280DD1206840680C21884321689F
:101210004860A06BFF210131884301210843A0638E
:1012200007E0A06B20210843A063E06B0121084385
:10123000E063207E002802D10C2021680860002095
:10124000A0E7000070B504460025206880680421EE
:101250000840800800282BD100BF3420005D012801
:1012600001D1022070BD01213420015500BF607EF4
:10127000012803D02046FFF767FC0546002D18D152
:10128000A06B0D490840FF2101310843A0630020F5
:10129000E06300BF00213420015500BF1C202168FD
:1012A000086020688068042108432168886000E0A5
:1012B00002252846D6E70000FEF1FFFF70B5044680
:1012C000002500BF3420005D012801D1022070BD3F
:1012D00001213420015500BF2046FFF79DFB054644
:1012E000002D0CD12046FFF7D3FB0546002D06D17B
:1012F000A06BFF210131884301210843A06300BF97
:1013000000213420015500BF2846E0E7FFB581B039
:1013100004460D462020005D009020688368A86880
:10132000002800D100E000BF0098012802D00098FA
:1013300002287FD1012080061840002809D1012011
:10134000C0061840002804D10120000718400028DA
:1013500069D0032000061840010E01208840049E39
:101360003060A868002809D128884005EE6830431D
:101370002668FF3681360F01F0510AE06868C00028
:10138000AE683043EE6830432668FF3681360F0181
:10139000F0512E692068FF3081300F01C01946607E
:1013A000287D01280ED12068FF3081300E01801980
:1013B0004068FF26013630432668FF3681360F012C
:1013C000F6197060D0790006967936043043567964
:1013D00036023043167930432668FF3681360F01D6
:1013E000F619F060D07800069678360430435678C7
:1013F00036023043167806432068FF3081300F01F3
:10140000C01986602068FF3081300E0180590126A6
:1014100030432668FF3681360F01F051002005B0B9
:10142000F0BD07E0FFE7606A0126760530436062A1
:101430000120F4E7606A0126B604304360620120AF
:10144000EDE7F0B504460A4621682020055D012D30
:1014500001D0022D71D101204002405801263043B5
:1014600076027050107DC606F60E0123B340872029
:101470008000405898438726B6007050D0690028F5
:101480001DD183208000405898438326B6007050B9
:10149000908900049688B6B230435669F600092751
:1014A000BF01CF19B851108900041688B6B2304375
:1014B0005669F6000927BF01CF19F6197060D06987
:1014C00001281DD183208000405818438326B60090
:1014D0007050108800049688B6B230435669F60002
:1014E0000927BF01CF19B851108900049689B6B2F7
:1014F00030435669F6000927BF01CF19F61970600D
:101500009069002807D181208000405898438126A7
:10151000B600705006E081208000405818438126B4
:10152000B60070501069002808D18520800040580E
:1015300098438526B600705007E01AE085208000A9
:10154000405818438526B6007050106A012806D10D
:1015500087208000405818438726B600705001202D
:1015600040024058460876000120400246500020C4
:10157000F0BD606A0126B604304360620120F7E7DF
:10158000704770B504462020055D012D01D0022D65
:101590007DD100290CD12068C0688007800F002809
:1015A00013D1606A0126760530436062012070BD68
:1015B000206800698007800F002806D1606A012634
:1015C0007605304360620120F1E72068FF30B130DA
:1015D0000E0180590426304090609068002807D1A1
:1015E0002068FF30B1300E018059400D106006E0D8
:1015F0002068FF30B1300E018059C008506020686B
:10160000FF30B1300E01805902263040D060206892
:10161000FF30B1300E01801940680007000F082824
:1016200002D30820106108E02068FF30B1300E01BD
:10163000801940680007000F10612068FF30B1304A
:101640000E0180194068FF2636023040000A906182
:101650002068FF30B1300E0180194068000C5061E5
:101660002068FF30B1300E01801980681870206842
:10167000FF30B1300E0180198068FF2636023040FD
:10168000000A58702068FF30B1300E0100E044E0DD
:1016900080198068FF2636043040000C987020685E
:1016A000FF30B1300E0180198068000ED8702068BC
:1016B000FF30B1300E018019C06818712068FF300A
:1016C000B1300E018019C068FF2636023040000A92
:1016D00058712068FF30B1300E018019C068FF26B4
:1016E00036043040000C98712068FF30B1300E0194
:1016F0008019C068000ED871002906D12068C06822
:10170000202630432668F06005E020680069202626
:10171000304326683061002049E7606A0126B6043C
:1017200030436062012042E7F0B585B004460025F1
:1017300020684669206840680390206887682068B0
:10174000C06802902068006901902068806900905C
:10175000F007C00F00286DD0F807C00F00281DD07B
:1017600001202168886002203840002803D02046EC
:1017700000F091FA12E004203840002803D0012044
:10178000C00205430AE008203840002803D00120A9
:101790000003054302E0204600F07CFAFF20013000
:1017A0003840002820D0FF200130216888604000A8
:1017B0003840002803D0204600F06FFA14E00120E2
:1017C00080023840002803D00120400305430BE08D
:1017D0000120C0023840002803D0012080030543C7
:1017E00002E0204600F058FA0120000438400028AA
:1017F00020D0012000042168886040003840002883
:1018000003D0204600F04BFA14E001208004384059
:10181000002803D00120C00305430BE00120C004D1
:101820003840002803D001200004054302E0204690
:1018300000F034FA08203040002809D01021029826
:101840000840002804D04801054310202168C860E2
:101850000420304000280AD00821029808400028BF
:1018600005D008202168C860204600F0C5F9022094
:101870003040002808D02068C0688007800F00280A
:1018800002D0204600F0BAF940203040002809D0AC
:10189000102101980840002804D088010543102039
:1018A000216808612020304000280AD008210198D2
:1018B0000840002805D0082021680861204600F073
:1018C000B5F910203040002808D020680069800752
:1018D000800F002802D0204600F0A9F90120400422
:1018E000304000280AD0102103980840002805D075
:1018F000102021684860204600F09AF90120000479
:10190000304000280AD0082103980840002805D05C
:10191000082021684860204600F0C2F90120C00379
:101920003040002860D0042103980840002858D097
:1019300088013040002806D00098C007C00F00285A
:1019400001D001200543012040023040002806D08C
:10195000022100980840002801D002200543012000
:1019600080023040002806D004210098084000285A
:1019700001D0042005430120C0023040002830D0AF
:1019800070210098084000282BD00098084040287B
:1019900015D006DC102809D020280AD0302818D10C
:1019A0000AE050280ED0602813D10EE0082005432D
:1019B00010E0102005430DE0202005430AE0402000
:1019C000054307E08020054304E0FF200130054384
:1019D00000E000BF00BF2068806970218843216853
:1019E0008861042021684860002D05D0606A284382
:1019F00060622046FFF7C4FD05B0F0BD70B5044637
:101A0000002C01D1012070BD2020005D002802D1F2
:101A1000204600F0B1F820680068012108432168E1
:101A2000086000F033FB05460EE000F02FFB401B82
:101A30000A2809D9606A0121490408436062052126
:101A4000202001550120DEE720684068C007C00F54
:101A50000028EAD0206800680221884321680860D5
:101A600000F014FB05460EE000F010FB401B0A28B6
:101A700009D9606A012149040843606205212020D8
:101A800001550120BFE72068406802210840002876
:101A9000EAD1207E012806D1206800688021084311
:101AA0002168086005E0206800688021884321687B
:101AB0000860607E012806D1206800684021084344
:101AC0002168086005E0206800684021884321689B
:101AD0000860A07E012806D1206800682021084304
:101AE0002168086005E0206800682021884321689B
:101AF0000860E07E012806D1206800681021884334
:101B00002168086005E0206800681021084321680A
:101B10000860207F012806D120680068082108435A
:101B20002168086005E02068006808218843216872
:101B30000860607F012806D12068006804210843FE
:101B40002168086005E02068006804218843216856
:101B50000860E168A0680843216908436169084397
:101B60006168491E08432168C86100206062012144
:101B700020200155002046E710B586B00446142108
:101B800001A8FEF7CBFB1A49206888422ED100BF7E
:101B90001848C0690121490608431649C86108462A
:101BA000C069012149060840009000BF00BF00BF86
:101BB00010484069091208430E49486108464069C7
:101BC000012149040840009000BF00BF0320C0026B
:101BD0000190022002900020039003200490042032
:101BE000059001A90920C00600F050F906B010BD0B
:101BF00000640040001002407047000030B589B01A
:101C00000446039D6B4602AA00212046FFF7B9FC5B
:101C1000002801D0FFF712F80348854201D109B02E
:101C200030BD00BFFBE700000101E60C70477047C4
:101C3000704770B504462020005D012823D10221A1
:101C40002020015520680068400840002168086095
:101C500000F01CFA05460EE000F018FA401B0A28B6
:101C600009D9606A012149040843606205212020E6
:101C70000155012070BD20684068C007C00F0028D2
:101C8000EAD16062F6E7606A0121C9040843606234
:101C90000120EFE770477047704770477047704703
:101CA0007047000070B5044600F0F0F9064625467E
:101CB000681C002802D0054800782D1800BF00F0ED
:101CC000E5F9801BA842FAD370BD00005401002042
:101CD000F8B504460E460127002500BF2448007EC3
:101CE000012801D10220F8BD01202149087600BF5A
:101CF0002068012811D11F48FFF702F8002830D1D1
:101D0000FEF7A0FF1B48FEF7FBFF07461A480069D5
:101D1000042188431849086123E01648FEF7F0FFC4
:101D200000281ED1401E3060656813E02846FEF78B
:101D30009DFF1048FEF7E4FF07460F4800690221A7
:101D400088430D490861002F01D0356008E001206B
:101D500080022D18A068800261684018A842E5D86A
:101D600000BF00BF00200249087600BF3846BAE72E
:101D70001803002050C30000002002400148C06941
:101D800070470000180300200348006980210843C1
:101D9000014908610020704700200240F0B51FB4DF
:101DA00086B0074615461E460120039000240020F9
:101DB000029000BF2548007E012802D102200BB00E
:101DC000F0BD01202149087600BF2148FEF798FFA9
:101DD00003900398002831D1012F02D101200290F5
:101DE00006E0022F02D10220029001E004200290BE
:101DF00000241FE022012846314604960595FEF78F
:101E0000DDF980B2610001900798081800900199EF
:101E1000FEF742FF0E48FEF773FF03900D4800697E
:101E2000400840000B4908610398002800D004E0F6
:101E3000601CC4B202988442DCDB00BF00BF0020FB
:101E40000249087600BF0398B9E700001803002094
:101E500050C3000000200240002009490969802287
:101E6000114000290BD00749054A516006495160CD
:101E70001146096980221140002900D001207047D5
:101E80000020024023016745AB89EFCD78B50346BA
:101E90000A460021DAE001268E4014683440002C06
:101EA0007ED01579AD07AD0F012D04D01579AD07A2
:101EB000AD0F022D18D198684E000325B540064697
:101EC000AE4330464E00D568B54028439860586808
:101ED00001258D400646AE433046102655683540F4
:101EE0002D098D40284358601579AD07AD0F032D9E
:101EF0000BD0D8684E000325B5400646AE433046A9
:101F00004E009568B5402843D8601579AD07AD0FF0
:101F1000022D15D1CD08AE001D462035A8594D071C
:101F2000EE0E0F25B5400646AE4330464E07F60E80
:101F30001569B5402843CD08AD001E4620367051C6
:101F400018684E000325B5400646AE433046157965
:101F5000AD07AD0F4E00B540284318600326360488
:101F600055683540002D70D000BF3B4DAD6901264E
:101F70003543394EB5613546AD69ED07ED0F009536
:101F800000BF00BF354D8E08B600A8598D072E0F33
:101F90000F25B5400646AE4330460925ED0600E064
:101FA00053E0AB4201D100250AE02D4DAB4201D1F7
:101FB000012505E02B4DAB4201D1022500E00525AE
:101FC0008E07360FB5402843244D8E08B600A85121
:101FD000254DA8680546A5432846012636055568BF
:101FE0003540002D02D00546254328461E4DA860E9
:101FF000E8680546A543284601267605556835401C
:10200000002D02D0054625432846174DE860686834
:102010000546A54328460126760455683540002D1F
:1020200002D00546254328460F4D686028680546BE
:10203000A54328460126360455683540002D02D0B8
:10204000054625432846084D2860491C1568CD40A3
:10205000002D00D01FE778BD0010024008000140AD
:1020600000040048000800480004014002461369CB
:102070000B40002B01D0012000E000207047002A17
:1020800001D0816100E08162704700000148006872
:10209000704700004C01002002464120805C20284F
:1020A0002FD100BF4020805C012801D10220704761
:1020B00001234020835400BF24234120835410680F
:1020C0000068400840001368186010680068012329
:1020D0001B0398431368186010680068084313686E
:1020E00018601068006801231843136818602023E3
:1020F0004120835400BF00234020835400BF0020B0
:10210000D5E70220D3E710B502460B464120805C9C
:1021100020282ED100BF4020805C012801D1022060
:1021200010BD01244020845400BF24244120845445
:10213000106800684008400014682060106801685A
:102140000F2424020846A0430146180201431068E8
:102150000160106800680124204314682060202476
:102160004120845400BF00244020845400BF00203C
:10217000D6E70220D4E7000010B50446002C01D1B8
:10218000012010BD4120005D002805D10021402024
:102190000155204600F00EFA242141200155206807
:1021A000006840084000216808600F210906606847
:1021B000884321680861206880680121C903884339
:1021C00021688860E068012806D10121C903A06860
:1021D00008432168886005E021218902A06808433E
:1021E00021688860E068022807D1206840680121E2
:1021F000C90208432168486006E020684068012160
:10220000C90288432168486020684068144908432F
:10221000216848602068C0680121C903884321689B
:10222000C860616920690843A169090208432168FF
:10223000C860216AE0690843216808602068006876
:1022400001210843216808600020606420214120AA
:10225000015500202063002142200155002090E715
:1022600000800002FFB583B004460C9F0E9E412003
:10227000005D20287ED1002F02D00D98002805D1C6
:10228000012040026064012007B0F0BD00BF402083
:10229000005D012801D10220F6E70121402001550F
:1022A00000BFFFF7F3FE054619230122D1032046A4
:1022B000009501F05DFC002801D00120E4E7222117
:1022C0004120015540214220015500206064676291
:1022D0000D9860850020606300960195204604A952
:1022E0000EC901F0A7FB002806D000BF0021402046
:1022F000015500BF0120C7E7608DFF280CD90120E0
:10230000208541480090208DC2B201231B06204643
:10231000049901F00FFC0BE0608D20853A48009095
:10232000208DC2B201235B062046049901F002FC15
:1023300000BF3346002204212046009501F018FC1E
:10234000002801D001209FE72068406A616A087078
:10235000606A401C6062208D401E2085608D401E9A
:102360006085608D00282BD0208D002828D1334631
:10237000002200E045E080212046009501F0F8FBB6
:10238000002801D001207FE7608DFF280CD90120B3
:10239000208500200090208DC2B201231B0620461C
:1023A000049901F0C7FB0BE0608D208500200090B0
:1023B000208DC2B201235B062046049901F0BAFBCE
:1023C000608D0028B5D12A463146204601F00FFC29
:1023D000002801D0012057E720202168C86120682B
:1023E00040680A4908402168486020214120015581
:1023F00000214220015500BF4020015500BF0020B0
:1024000042E7022040E700000024008000E800FED0
:10241000FFB583B004460C9F0E9E4120005D20282E
:102420007ED1002F02D00D98002805D10120400256
:102430006064012007B0F0BD00BF4020005D0128AE
:1024400001D10220F6E701214020015500BFFFF72E
:102450001DFE054619230122D1032046009501F0F7
:1024600087FB002801D00120E4E72121412001550C
:102470004021422001550020606467620D9860850C
:102480000020606300960195204604A90EC901F062
:1024900011FB002806D000BF00214020015500BFDD
:1024A0000120C7E7608DFF280CD9FF202085002080
:1024B0000090208DC2B201231B062046049901F032
:1024C00039FB0BE0608D208500200090208DC2B28A
:1024D00001235B062046049901F02CFB00BF2A462D
:1024E0003146204601F0B6FB002801D00120A1E7CB
:1024F000606A007821688862606A401C6062608D52
:10250000401E6085208D401E2085608D00282BD0C8
:10251000208D002828D1334600228021204600E06B
:1025200043E0009501F024FB002801D0012081E761
:10253000608DFF280CD9FF20208500200090208D81
:10254000C2B201231B062046049901F0F3FA0BE006
:10255000608D208500200090208DC2B201235B0693
:102560002046049901F0E6FA608D0028B7D12A468A
:102570003146204601F03BFB002801D0012059E7FD
:1025800020202168C8612068406809490840216806
:10259000486020214120015500214220015500BF03
:1025A0004020015500BF002044E7022042E7000020
:1025B00000E800FE10B586B00446142101A8FDF71E
:1025C000ADFE1A49206888422DD100BF18484069E5
:1025D00001218904084316494861084640690121E0
:1025E00089040840009000BF00BFC0200190122065
:1025F000029000200390032004900120059001A97F
:102600000C48FFF743FC00BF0948C0690121490598
:1026100008430749C8610846C069012149050840C7
:10262000009000BF00BF06B010BD00000054004085
:10263000001002400004004803480068034909787C
:1026400040180149086070474C01002054010020E7
:1026500010B50648006810210843044908600320AB
:1026600000F006F800F02EF8002010BD0020024017
:1026700070B50446104801787D20C000FDF750FE7B
:10268000064631460D480068FDF74AFE054600F053
:102690005FFD002801D0012070BD042C07D200226C
:1026A0002146501E00F03CF80548046001E001207E
:1026B000F2E70020F0E7000054010020580100205C
:1026C0005001002008B500BF0D4880690121084372
:1026D0000B49886108468069C007C00F009000BFA1
:1026E00000BF00BF0846C069090408430449C86127
:1026F0000846C06909040840009000BF00BF08BD3B
:10270000001002400146002905DBCB06DB0E01224A
:102710009A40024B1A6000BF7047000000E100E0E1
:1027200070B504460D4616462946204601F09CFF2A
:1027300070BD0000F8B504460026002501210904FB
:102740002068084088427AD100275948C0690903A7
:10275000084000280DD100BF5548C06908435449BE
:10276000C8610846C06909040840009000BF00BF66
:10277000012750480068FF2101310840002816D188
:102780004C48006808434B490860FFF77FFC064649
:1027900006E0FFF77BFC801B642801D90320F8BD0D
:1027A00044480068FF21013108400028F1D040482A
:1027B000006A0321090208400546002D2DD06068FB
:1027C0000840A84229D03A48006A8843054638485C
:1027D000006A012109040843354908620846006A75
:1027E0000121090488433249086208460562E80766
:1027F000C00F002811D0FFF749FC064607E0FFF79D
:1028000045FC801B2C49884201D90320C7E7284892
:10281000006A022108400028F1D02548006A0321FF
:10282000090288436168084321490862012F05D1E4
:102830000846C069090488431D49C86100BF207863
:10284000C007C00F002807D01948006B800880001F
:10285000A168084316490863202120680840202801
:1028600007D11348006B10218843E16808431049E1
:1028700008630121490420680840884207D10C48B8
:10288000006B80218843616908430949086301217D
:10289000890220680840884207D10548006B402122
:1028A00088432169084302490863002077E7000054
:1028B00000100240007000408813000070B504460C
:1028C0000D46002C01D1012070BD58480068C0079A
:1028D000C00FA8420ED25548006840084000284367
:1028E0005249086008460068C007C00FA84201D0DE
:1028F0000120E9E7022120680840022814D10421C0
:1029000020680840042807D1494840680721090287
:10291000884340184649486045484068F02188434C
:10292000A1680843424948602078C007C00F0028CA
:1029300047D06068012808D13D480068012149045A
:102940000840002821D10120BEE76068022808D194
:1029500037480068012149060840002815D10120A8
:10296000B2E76068032808D13148406B012149046F
:102970000840002809D10120A6E72D48006802215F
:102980000840002801D101209EE7294840688008BE
:1029900080006168084326494860FFF777FB0646D8
:1029A00007E0FFF773FB801B2249884201D903200F
:1029B0008AE71F4840680C21084061688900884206
:1029C000EFD11A480068C007C00FA8420ED91748B7
:1029D0000068400840002843144908600846006821
:1029E000C007C00FA84201D001206DE70421206874
:1029F0000840042808D10E4840680721090288438E
:102A0000E16808430A49486000F01AF80849496833
:102A1000F02211400909084A515CC8400749086082
:102A20000320FFF725FE00204EE7000000200240B3
:102A30000010024088130000F46C000858010020C8
:102A4000F8B50025002400270026002000902B4820
:102A500045680C202840002849D0042804D00828C4
:102A600005D00C2842D13EE02548009042E00F20DE
:102A700080042840800C23490E5C2048C06A00076F
:102A8000000F21490C5C0320C003284001210904E8
:102A900088420AD12246002319481946FDF79FFBB8
:102AA000314601F0A9FD07461BE00320C003284082
:102AB0000321C90388420AD122460023134819463C
:102AC000FDF78DFB314601F097FD074609E02246F0
:102AD00000230F481946FDF782FB314601F08CFDBB
:102AE0000746009706E00948009003E000BF084849
:102AF000009000BF00BF0098F8BD00000010024029
:102B000040787D01D46C0008E46C0008006CDC02A5
:102B100000127A00FEB50446002C01D10120FEBD52
:102B20002078C007C00F002872D0FC4840680C21F4
:102B3000084004280CD0F94840680840082813D100
:102B4000F6484068490308400121090488420BD136
:102B5000F248006801214904084000286BD06068F1
:102B6000002868D10120DAE700BF6068012807D19A
:102B7000EA480068012109040843E849086031E097
:102B8000606800280ED1E5480068012109048843E7
:102B9000E249086008460068012189048843DF494A
:102BA00008601FE0606805280ED1DC48006801213C
:102BB00089040843D94908600846006801210904CE
:102BC0000843D64908600DE0D44800680121090493
:102BD0008843D24908600846006801218904884377
:102BE000CE49086000BF6068002812D0FFF74EFA97
:102BF000054606E0FFF74AFA401B642801D9032086
:102C00008DE7C64800680121490408400028F1D03A
:102C100011E0FFF73BFA054606E0FFF737FA401BE5
:102C2000642801D903207AE7BC48006801214904DF
:102C300008400028F1D1022120680840022862D112
:102C4000B64840680C21084000280CD0B3484068C2
:102C5000084008281CD1B1484068490308400121B8
:102C6000C903884214D1AD480068022108400028F9
:102C700004D0E068012801D0012050E7A74800688F
:102C8000F82188432169C9000843A44908603AE053
:102C9000E068002820D0A1480068012108439F492E
:102CA0000860FFF7F3F9054606E0FFF7EFF9401B70
:102CB000022801D9032032E7984800680221084021
:102CC0000028F2D095480068F82188432169C9009E
:102CD00008439249086016E09048006840084000A8
:102CE0008E490860FFF7D2F9054606E0FFF7CEF9F6
:102CF000401B022801D9032011E7884800680221FF
:102D000008400028F2D1082120680840082831D165
:102D1000E069002817D08148406A012108437F49B3
:102D20004862FFF7B3F9054606E0FFF7AFF9401B2D
:102D3000022801D90320F2E67848406A02210840BF
:102D40000028F2D016E07548406A400840007349F8
:102D50004862FFF79BF9054606E0FFF797F9401B2D
:102D6000022801D90320DAE66C48406A02210840B3
:102D70000028F2D1042120680840042872D10020E4
:102D800001906648C0698906084000280ED100BF3E
:102D90006248C06908436149C8610846C0690904BE
:102DA0000840009000BF00BF012001905C4800680F
:102DB000FF2101310840002816D159480068084316
:102DC00057490860FFF762F9054606E0FFF75EF92C
:102DD000401B642801D90320A1E651480068FF2167
:102DE000013108400028F1D000BFA068012806D1B9
:102DF0004A48006A01210843484908622AE0A0685D
:102E000000280BD14548006A410849004348016247
:102E1000006A04218843414908621BE0A068052834
:102E20000CD13E48006A042108433C490862084628
:102E3000006A01210843394908620BE03748006AFB
:102E400040084000354908620846006A042188436A
:102E50003249086200BFA068002813D0FFF716F9B6
:102E6000054608E02BE0FFF711F9401B2D49884289
:102E700001D9032053E62948006A022108400028AE
:102E8000F1D011E0FFF702F9054607E0FFF7FEF881
:102E9000411B2448814201D9032040E61F48006AB3
:102EA000022108400028F1D10198012806D11B48D1
:102EB000C0690121090788431849C86100BF102172
:102EC0002068084010285FD1606901282CD1134880
:102ED000406B04210843114948630846406B0121B7
:102EE00008430E494863FFF7D1F8054606E0FFF7AF
:102EF000CDF8401B022801D9032010E60748406B9B
:102F0000022108400028F2D00448406BF821884391
:102F1000A169C90008430149486335E00010024037
:102F200000700040881300006069401D00280FD128
:102F30008648406B04218843844948630846406BB7
:102F4000F8218843A169C9000843804948631BE010
:102F50007E48406B042108437C4948630846406B27
:102F6000400840004863FFF791F8054606E0FFF788
:102F70008DF8401B022801D90320D0E57348406B2F
:102F8000022108400028F2D1202120680840202892
:102F900052D16E4840680C2108400C280AD06B487A
:102FA00040680840082811D1684840684903084033
:102FB00088420BD16548406B012149040840002834
:102FC0003AD0206A012837D00120A8E5206A0028DD
:102FD00019D05E48406B0121090408435B494863EE
:102FE000FFF754F8054606E0FFF750F8401B0228AB
:102FF00001D9032093E55548406B0121490408405D
:103000000028F1D018E05148406B012109048843A1
:103010004E494863FFF73AF8054606E0FFF736F8F1
:10302000401B022801D9032079E54848406B012163
:10303000490408400028F1D1606A00284FD0434875
:1030400040680C210840082864D0606A022847D1F3
:103050003E4800680121090688433C490860FFF7A3
:1030600015F8054606E0FFF711F8401B022801D9C4
:10307000032054E53548006801214906084000282E
:10308000F1D100BF3148C06A00090001216B08433B
:103090002E49C862A16AE06A08432C4949687B222C
:1030A000D203914308432949486000BF084600689D
:1030B00001210906084325490860FEF7E7FF054698
:1030C00006E0FEF7E3FF401B022801D9032026E5B6
:1030D0001E4800680121490608400028F1D033E06D
:1030E0001A48006801210906884318490860FEF75C
:1030F000CDFF054606E0FEF7C9FF401B022801D9B7
:1031000003200CE511480068012149060840002809
:10311000F1D119E0606A012800D100E50B4846684A
:10312000C76A0320C0033040A16A88420AD1390728
:10313000090F206B814205D10F2080043040E16AE5
:10314000884201D00120EAE40020E8E400100240B7
:1031500070B504462546681E0949884201D90120F8
:103160000CE0681E074948610321081F01F07CFA42
:1031700000200449886107200861002070BD00001C
:10318000FFFFFF0000E000E07047704710B5034606
:10319000002200BF3C20C05C012801D1022010BDEC
:1031A00001243C20C45400BF100A0002CC68204314
:1031B0000246104603242402A0438C6820430246A2
:1031C00010460124A402A0434C6820430246104646
:1031D0000124E402A0430C68204302461046012467
:1031E0002403A0430C6920430246104601246403D3
:1031F000A0434C692043024610460124A403A04387
:10320000CC69204302461868426400BF00243C2079
:10321000C45400BF0020C2E730B502460B4600BFD1
:103220003C20805C012801D1022030BD01253C20DA
:10323000855400BF02253D208554106844681068FD
:10324000816870252046A843044618680443106826
:1032500044600F4D1068A84208D00125AD071068E2
:10326000A84203D00B4D1068A84207D1802508461C
:10327000A8430146586801431068816001253D203C
:10328000855400BF00253C20855400BF0020CCE7BA
:10329000002C01400004004010B50446002C01D170
:1032A000012010BD3D20005D002805D100213C20FB
:1032B0000155204600F022F802213D200155211D34
:1032C000206800F0ABFF01214620015500BF3E20E1
:1032D00001553F200155402001554120015500BFB7
:1032E00000BF42200155432001554420015545208F
:1032F000015500BF3D2001550020D2E77047F8B5C9
:1033000004460D460020009000BF3C20005D0128CF
:1033100001D10220F8BD01213C20015500BF02214E
:103320003D2001552068866877213046884306464F
:10333000FF210902304688430646206886602868D7
:10334000502834D00CDC202851D004DC00284CD08C
:10335000102852D14AE030284AD040284DD13AE0D6
:1033600060282ED0702807D001210903401A02D00E
:10337000401A42D10DE043E0EB686A68A968206812
:1033800000F0B5FF206886687720064320688660D5
:1033900036E0EB686A68A968206800F0A8FF20683A
:1033A00080680121890308432168886028E0EA6871
:1033B0006968206801F0EEF85021206800F0A5FF50
:1033C0001EE0EA686968206801F0FDF86021206865
:1033D00000F09BFF14E0EA686968206801F0DAF801
:1033E0004021206800F091FF0AE000BF00BF00BF4D
:1033F0002968206800F089FF02E00120009000BFEA
:1034000000BF01213D20015500BF00213C20015596
:1034100000BF00987EE7704770B504462068C56815
:103420002068066902203040022819D1284002286D
:1034300016D1401F2168086101202077206880692B
:103440008007800F002803D02046FFF7E4FF05E047
:10345000204600F0C9F8204600F0AAF900202077A5
:103460000420304004281AD12840042817D1C04332
:103470002168086102202077206880690321090201
:103480000840002803D02046FFF7C5FF05E020468E
:1034900000F0AAF8204600F08BF9002020770820E1
:1034A0003040082819D12840082816D1C043216887
:1034B0000861042020772068C0698007800F0028F9
:1034C00003D02046FFF7A7FF05E0204600F08CF868
:1034D000204600F06DF900202077102030401028A1
:1034E0001AD12840102817D1C0432168086108204C
:1034F00020772068C069032109020840002803D012
:103500002046FFF788FF05E0204600F06DF82046D2
:1035100000F04EF900202077F007C00F00280AD0F5
:10352000E807C00F002806D00120C04321680861C9
:10353000204600F0B3F980203040802808D1284090
:10354000802805D1C043216808612046FFF71CFE92
:1035500040203040402808D12840402805D1C043B1
:1035600021680861204600F09AF920203040202888
:1035700008D12840202805D1C04321680861204691
:10358000FFF703FE70BD000010B586B0044614219D
:1035900001A8FCF7C3FE1249206888421ED100BF73
:1035A000104840690121490408430E494861084612
:1035B0004069012149040840009000BF00BF03207A
:1035C000400201900220029000200390049002200B
:1035D000059001A90920C006FEF758FC06B010BDF1
:1035E000002C0140001002407047F8B504460D461B
:1035F0001646002700BF3C20005D012801D10220B3
:10360000F8BD01213C20015500BF002E06D0042E3C
:103610001BD0082E33D00C2E62D147E029462068FB
:1036200000F080FE206880690821084321688861D5
:103630002068806904218843216888612068806946
:1036400029690843216888614CE02946206800F018
:10365000B7FE206880690121C9020843216888619A
:103660002068806901218902884321688861206877
:1036700080692969090208432168886132E0294686
:10368000206800F0F5FE2068C06908210843216821
:10369000C8612068C069042188432168C861206826
:1036A000C069296908432168C8611BE02946206870
:1036B00000F034FF2068C0690121C9020843216875
:1036C000C8612068C0690121890288432168C861F6
:1036D0002068C0692969090208432168C86101E0BE
:1036E000012700BF00BF00BF00213C20015500BFE3
:1036F000384685E710B50446002C01D1012010BDE5
:103700003D20005D002805D100213C2001552046C8
:1037100000F022F802213D200155211D206800F013
:103720007DFD01214620015500BF3E2001553F206F
:103730000155402001554120015500BF00BF4220E6
:10374000015543200155442001554520015500BF36
:103750003D2001550020D2E708B5124A0168914288
:103760000DD100BF10498969D21411430E4A9161ED
:1037700011468969D2141140009100BF00BF0B4A65
:10378000016891420DD100BF0749C96992151143E3
:10379000054AD1611146C96992151140009100BFD7
:1037A00000BF08BD002C0140001002400020004076
:1037B0007047000070B504460D46002D02D13E2032
:1037C000005D0BE0042D02D13F20005D06E0082DD6
:1037D00002D14020005D01E04120005D012801D0C0
:1037E000012070BD002D03D102213E2001550EE0C5
:1037F000042D03D102213F20015508E0082D03D1FB
:1038000002214020015502E0022141200155012200
:103810002946206800F05AFD1C492068884207D0DC
:103820001B492068884203D01A492068884201D188
:10383000012000E00020002806D02068406C012113
:10384000C90308432168486410492068884208D0A9
:10385000012189072068884203D00F4920688842E7
:103860000CD1206880684607760F062E0CD02068A1
:103870000068012108432168086005E020680068AD
:1038800001210843216808600020AAE7002C0140BC
:103890000044014000480140000400407047704768
:1038A00000BFFEE70168896902221140490800292A
:1038B00002D000210268916201688969C907C90FB5
:1038C000012251405140002904D101688969114306
:1038D0000268916170470000F7B584B004460E4657
:1038E0000020039020688769002506980290102028
:1038F0003840102854D12168C8613DE0701C002870
:103900003AD0FEF7C3FB0299401AB04201D8002E0C
:1039100032D120684068012189030840019042208B
:10392000005D00902068806949000840C00B0028B5
:103930000ED04910019888420AD00098202807D05C
:1039400020684068084321684860FEF79FFB0290AA
:103950000AE0FEF79BFB0299401A192804D920209F
:1039600005430120039006E020688069202108407B
:1039700040090028EDD000BF206880692021084060
:103980004009002802D103980028B7D003980028E6
:1039900002D120202168C861042005430120039042
:1039A00020688769FF2001303840FF2101318842BB
:1039B00006D10120054300022168C861012003905F
:1039C00001208002384001218902884206D1082066
:1039D0000543C0012168C861012003900120400215
:1039E000384001214902884206D1022005430002E5
:1039F0002168C861012003900398002815D0204653
:103A0000FFF750FF20684068094908402168486076
:103A1000606C284360642021412001550021422030
:103A2000015500BF4020015500BF039807B0F0BD0D
:103A300000E800FEFFB581B0044615461E460A9F09
:103A40001B48F2B2002300902046029900F072F861
:103A5000394620460B9A00F0FDF8002802D00120DC
:103A600005B0F0BD012E03D1E8B22168886211E0F3
:103A7000FF20000228400012216888623946204653
:103A80000B9A00F0E7F8002801D00120E8E7E8B23F
:103A9000216888620B983B46002240210090204616
:103AA00000F066F8002801D00120D9E70020D7E710
:103AB00000200080FFB581B0044615461E460A9FCF
:103AC0001B48F2B2C30200902046029900F032F87F
:103AD000394620460B9A00F0BDF8002802D001209C
:103AE00005B0F0BD012E03D1E8B22168886211E073
:103AF000FF200002284000122168886239462046D3
:103B00000B9A00F0A7F8002801D00120E8E7E8B2FE
:103B1000216888620B983B46002280210090204655
:103B200000F026F8002801D00120D9E70020D7E7CF
:103B300000200080F8B5069C8D05AD0D1604FF270A
:103B40003F043E4035431D4325436D006D080095FD
:103B500005686E68650D0127BF023D40034F3D4378
:103B6000AE43009D2E4305686E60F8BDFF63FF0302
:103B7000F8B504460D4617461E462CE03146204651
:103B8000069AFFF7A9FE002801D00120F8BD701C9D
:103B9000002820D0FEF77AFA0699401AB04201D8E0
:103BA000002E18D1206880692840A84201D1012048
:103BB00000E00020B8420ED1606C20210843606410
:103BC0004120015500214220015500BF40200155F0
:103BD00000BF0120DAE7206880692840A84201D1AF
:103BE000012000E00020B842C8D00020CEE770B528
:103BF00004460D46164624E0324629462046FFF785
:103C00006BFE002801D0012070BDFEF73FFA801B3B
:103C1000A84201D8002D14D12068806920210840D5
:103C2000400900280DD1606C0843606441200155B3
:103C300000214220015500BF4020015500BF012056
:103C4000E2E7206880692021084040090028D3D09D
:103C50000020D9E770B504460D46164628E03246E6
:103C600029462046FFF738FE002801D0012070BD0C
:103C7000681C00281CD0FEF709FA801BA84201D856
:103C8000002D15D1206880690221084040080028D5
:103C90000ED1606C20210843606441200155002151
:103CA0004220015500BF4020015500BF0120DEE742
:103CB000206880690221084040080028CFD00020F9
:103CC000D5E700000EB50020009001900290184842
:103CD0001849086000204860002116488160C160D2
:103CE0000121016104214161002101764176817643
:103CF000C176FF21C231C16100210162243001700F
:103D0000012124388162FDF709F9002801D0FCF770
:103D100095FF02200090C0020190000402906946C5
:103D20000448FDF721F8002801D0FCF787FF0EBDFD
:103D3000002401409401002010B51C481C49086073
:103D40000C20486000211A488160C1600321890469
:103D500001610121090541610021017641768176E9
:103D6000C17601774177FDF749FE002801D0FCF7C5
:103D700065FF00200F49486188610120C86100206B
:103D8000086048608860C8600861012008620848CF
:103D9000FDF757FB002211461E20FEF7C1FC1E2036
:103DA000FEF7B0FC0248FDF744FF10BD0064004080
:103DB000D4010020FC01002000B587B0142102A826
:103DC000FCF7ACFA00BF3E48406901218905084371
:103DD0003B49486108464069012189050840019036
:103DE00000BF00BF00BF364840694911084334494D
:103DF000486108464069012149040840019000BF1C
:103E000000BF00BF2E484069490008432C49486163
:103E100008464069012189040840019000BF00BFA5
:103E2000002228490920C006FEF729F900221B219B
:103E30002548FEF724F92B200290002003900490DF
:103E400002A90920C006FEF721F8202002900020D8
:103E50000390049002A91C48FEF718F84020029035
:103E6000032003900020049002A90920C006FEF759
:103E70000DF8144802900120039000200490059052
:103E800002A90920C006FEF701F81B2002900120BC
:103E9000039000200490059002A90B48FDF7F6FF5F
:103EA000C02002901220039000200490032005906F
:103EB0000120069002A90448FDF7E8FF07B000BD05
:103EC00000100240908100000004004810B518481E
:103ED000184908601848486000211648816001218F
:103EE000C1600021016141618161C1610162FEF730
:103EF00043F9002801D0FCF7A1FE00210D48FEF790
:103F0000CBF8002801D0FCF799FE00210948FEF704
:103F1000FAF8002801D0FCF791FE00BF07480068BE
:103F20000121090508430549086000BF10BD0000D4
:103F300000540040240200202B1D200000000140FE
:103F400000B597B000BF444880690121C902084309
:103F50004149886108468069C9140840019000BF42
:103F600000BF00201390149015901690119012909D
:103F70001C210AA8FCF7D2F9202102A8FCF7CEF9EF
:103F80003648374908600020486000213448816085
:103F90003449C1600021016141618161FFF77CF911
:103FA000002801D0FCF74AFE01200003139013A95A
:103FB0002B48FFF7A4F9002801D0FCF73FFE284862
:103FC000FFF798FB002801D0FCF738FE0020119085
:103FD000129011A92248FFF71FF9002801D0FCF721
:103FE0002DFE60200A9000200B900C900D900E90FA
:103FF0000F90109004220AA91948FFF7F6FA00283A
:1040000001D0FCF71BFE08220AA91548FFF7EDFABC
:10401000002801D0FCF712FE0020029003900490CB
:10402000059006900120400307900020099002A906
:104030000B48FFF7ABF8002801D0FCF7FFFD08485C
:10404000FFF7A2FA04210648FFF7B4FB0821044851
:10405000FFF7B0FB17B000BD00100240002C01407C
:10406000780200207F0C000000BFFEE770B5059DC0
:10407000049C0160426083600026C6600661466160
:104080004662C461056270BDF0B585B004460E4657
:1040900017461D462D480078C009002804D000218D
:1040A000284602F0CBFC02D1606A05B0F0BD39466B
:1040B000304602F0A7FDE060E168206802F012FDE2
:1040C00003902946E06802F00DFD0290616902F05C
:1040D0006FFC60610121C907E06948400290E16915
:1040E000606900F036FF0190029900F01FFF6061E7
:1040F0002169E06802F086FD29460290FCF7C0F9CC
:10410000A061A169A06802F0EDFC0290616960689D
:1041100002F0E8FC0090039902F04AFC0190029939
:1041200002F046FC60620121C907206A4840029003
:10413000216A606A00F00DFF0190029900F0F6FE1E
:104140006062E0682061606AAFE70000A2000020C2
:104150007047704710B5FEF76FFA0B480078401CA7
:104160000949087008460078322806DD00200870EA
:1041700006480088401C0549088001F061FD04499B
:10418000088800F0D1FD10BD26000020240000208A
:10419000A000002000B597B034210AA8FCF7BEF8B3
:1041A0000020069007900890099018216846FCF7B7
:1041B000B5F830200A90012012900F901020109036
:1041C000002013900AA8FEF7A5FC002801D0FCF7F8
:1041D00035FD0720069003200790002008900990E5
:1041E000012106A8FEF76AFB002801D0FCF726FD96
:1041F00020200090102003906846FEF79BFA0028CC
:1042000001D0FCF71BFD17B000BD704710B5024888
:10421000FFF702F910BD0000C002002010B50268CF
:10422000254B984206D001239B07984202D0234B8E
:10423000984205D170241346A3431A464B681A438B
:104240001D4B98420FD001239B0798420BD01B4B6C
:10425000984208D01A4B984205D01A4B984202D087
:10426000194B984206D1032424021346A3431A464D
:10427000CB681A4380241346A3434C6923431A4650
:1042800002608B68C3620B6883620B4B984205D057
:104290000C4B984202D00C4B984201D10B6903633E
:1042A000012343610369DB07DB0F002B03D00369A4
:1042B0005B085B00036110BD002C0140000400405E
:1042C00000200040004401400048014070B5CD0688
:1042D000ED0E0124AC402346046A9C430462046A48
:1042E000CE06F60E1546B5402C43046270BD70B57F
:1042F0000C468168FF2636020D46B54329461D024D
:10430000154325432943816070BD10B50A46816875
:1043100070240B46A34319460723134319438160B6
:1043200010BD000070B5026A056A6D086D00056277
:104330004368846970262546B5432C46A408A4002A
:104340000D682C4302261546B5432A468D682A433C
:10435000184DA84200D107E0174DA84200D103E054
:10436000164DA8420AD100BF08261546B5432A4675
:10437000CD682A4304261546B5432A460D4DA8426A
:1043800005D00D4DA84202D00C4DA8420CD1FF26FD
:1043900001361D46B5432B4676001D46B5432B46D8
:1043A0004D692B438D692B43436084614D684563A0
:1043B000026270BD002C01400044014000480140F1
:1043C00070B5026A056A1026B543056243688469C0
:1043D000072636032546B5432C46032636022546D6
:1043E000B5432C460D682D022C4320261546B543B7
:1043F0002A468D682D012A431A4DA84200D107E0B4
:10440000194DA84200D100BF184DA8420BD10AE0B7
:1044100080261546B5432A46CD682D012A434026FD
:104420001546B5432A460F4DA84205D00E4DA84269
:1044300002D00E4DA8420ED10126B6021D46B5434C
:104440002B4676001D46B5432B464D69AD002B43E8
:104450008D69AD002B43436084614D6885630262C2
:1044600070BD0000002C01400044014000480140A4
:1044700070B5026A056AFF260136B54305624368D6
:10448000C46970262546B5432C46A408A4000D68CF
:104490002C43012676021546B5432A468D682D0227
:1044A0002A431B4DA84200D107E01A4DA84200D173
:1044B00000BF194DA8420CD10BE00126F6021546AB
:1044C000B5432A46CD682D022A4376101546B543DA
:1044D0002A460F4DA84205D00E4DA84202D00E4DDF
:1044E000A8420ED1012636031D46B5432B46760061
:1044F0001D46B5432B464D692D012B438D692D017A
:104500002B434360C4614D68C563026270BD000007
:10451000002C0140004401400048014070B5036A8E
:10452000056A01263603B54305624468C269072659
:1045300036031546B5432A46032636021546B543CB
:104540002A460D682D022A43012676031D46B543EF
:104550002B468D682D032B430B4DA84205D00B4DE8
:10456000A84202D00A4DA84207D10126B60325462B
:10457000B5432C464D69AD012C434460C2614D6882
:104580000564036270BD0000002C0140004401403E
:104590000048014070B50B461446026A056A6D0872
:1045A0006D0005628169F0260D46B5432946250157
:1045B00029430A261546B5432A4615461D432A4671
:1045C0008161026270BD70B50B461446026A056ACD
:1045D0001026B543056281690F2636030D46B543A3
:1045E000294625032943A0261546B5432A461D0121
:1045F0002A438161026270BDF8B582B28BB2040CAD
:104600000D0C10465843002126465E43370C3604F5
:104610008019794116466E43370C3604801979416A
:1046200026466E438919F8BD30B47446641E257859
:10463000641CAB4204D3635D5B00E31830BC1847D5
:104640001D46F8E74100080200D004200A0E01D000
:1046500001221043090EFF2901D10221084301283C
:1046600000D105207047000010B5002819DB1A4A58
:1046700003231B02D21883089B00D2588307DC0E49
:10468000FF23A3409A438B071B0E8407E40EA3402D
:104690001A43114B032424021B198408A4001A5145
:1046A00018E00E4A03071B0F083B9B089B00D258DB
:1046B0008307DC0EFF23A3409A438B071B0E84075E
:1046C000E40EA3401A43054B0407240F083CA4083A
:1046D000A4001A5110BD000000E100E01CED00E054
:1046E00010B502F065F910BD5E2110B5C943080789
:1046F000FCF7E4F810BD0000F0B50C4601461D22A1
:104700004B00D2069F18E52605463606620087B0A4
:104710002046B7427BD21D27FF06D719B74276D273
:104720004F0043003E0E1A0EB21A1B2A07DD002965
:1047300002DA854807B0F0BD844807B0F0BD1A26FC
:10474000F2422FDA002807DA002902DA804807B09F
:10475000F0BD804807B0F0BD21462846FBF790FE2B
:104760000646FFF76FFF042801D1FFF7BDFF28467B
:10477000FFF768FF05462046FFF764FF0446304612
:10478000FFF760FF042D01D0052D08D1042C01D0C6
:10479000052C04D1002802D10220FBF793FF3046FC
:1047A00007B0F0BD9F4211D9002902DA6A4F6B4E63
:1047B00001E06B4F6B4E23462C461D4601220346FB
:1047C000D20708465440504019460BE0002807DA4B
:1047D000002902DA644F654E04E0654F654E01E042
:1047E00000263746421A012352001B069A422FD256
:1047F000484061490CD5BF2000060290384602F0BF
:1048000001FA07465D49304602F0FCF90BE053E03F
:104810003F2000060290384602F0CAF80746574982
:10482000304602F0C5F806462846029902F05AF9C9
:10483000214602F0BDF800902146029802F052F99C
:10484000294602F0D3F90099FBF71AFE044604E06A
:1048500021462846FBF714FE0446014602F042F9C1
:104860004749009002F03EF9464902F0A1F800994C
:1048700002F038F9444902F09BF8009902F032F94D
:10488000424902F095F8009902F02CF9404902F0F3
:104890008FF805462046009902F024F9294602F0D7
:1048A00021F9314602F084F8214602F081F83946B8
:1048B00002F07EF807B0F0BDFF263606B34201D8FD
:1048C000B24205D901462846FFF70AFF07B0F0BDFE
:1048D0002F4607437F000AD0B3420CD1B2420AD11F
:1048E00001229207904391430D46044618E7FF22A8
:1048F000D2051043F9E7B3420CD047000AD0B242C8
:104900000ED04E000CD05340F0D4002A0EDB9F2670
:10491000F6050DE0FF22D2051143E00FC007FFE6C8
:10492000C90FC907FF22D2051043F9E65F26F60535
:104930003146284602F0D6F805463146204602F0B8
:10494000D1F804462946EBE6DB0FC9BFDB0FC93FB0
:10495000DB0F49C0DB0F49400000C9BF22AAFDB9E7
:104960000000C93F22AAFD39000049C022AA7DBA31
:104970000000494022AA7D3A0060ED3EC30ACE37CE
:104980002DAD65BD8FB8D53D0FB511BE61C84C3E8C
:10499000A8AAAABE10B516E03D480088401C3C49B4
:1049A000088008460088FF21F53188420BDB002093
:1049B000374908803748007810218843103035493E
:1049C000087001F065FF08210920C006FDF74EFBC5
:1049D000002801D1012400E0002401210920C006A3
:1049E000FDF744FB012800D100E0002020402949C8
:1049F0000978C906C90F0122514008400028CBD1CF
:104A000016E023480088401C214908800846008899
:104A1000FF21F53188420BDB00201D4908801D482D
:104A200000781021884310301A49087000F036F8D9
:104A300008210920C006FDF719FB002801D1012437
:104A400000E0002402210920C006FDF70FFB012829
:104A500000D100E0002020400E490978C906C90FA6
:104A60000122514008400028CBD10A480078C006F6
:104A7000C00F002804D001200749087001F0ACFEE7
:104A800004480078102188430249087010BD0000D6
:104A900040010020A20000201C00002010B501F001
:104AA000F7FE00209749086006E000F02BFD9548CE
:104AB0000068401C93490860924800689249884207
:104AC000F3DB00208F49086090480068002801DD72
:104AD000012000E000208D4909681E2901DB012129
:104AE00000E00021084089490968C90F874A126817
:104AF0001D23DB439A4201DC012200E00022114029
:104B0000084383490968002901DD012100E00021F3
:104B10007F4A12681E2A01DB012200E000221140B8
:104B200008437B490968C90F794A12681D23DB4392
:104B30009A4201DC012200E00022114008430028D3
:104B400004D002E00120FDF7ADF8FBE77DE0022094
:104B5000FDF7A8F800F0D6FC6A480068401C6949D7
:104B60000860012208216B48FDF789FA0122D10370
:104B70000920C006FDF783FA192080016649886381
:104B80000020C863012210216248FDF778FA5F48CF
:104B90000068002801DD012000E000205B49096871
:104BA0001E2901DB012100E000210840002806D079
:104BB00000215A4881730020584908734BE053483C
:104BC0000068C00F514909681D22D243914201DC9F
:104BD000012100E000210840002806D000214F48B4
:104BE000817301204D49087335E049480068002869
:104BF00001DD012000E00020454909681E2901DB94
:104C0000012100E000210840002806D0012143488E
:104C100081730020414908731DE03D480068C00FC2
:104C20003B4909681D22D243914201DC012100E089
:104C300000210840002806D0012138488173012056
:104C40003649087307E000F02BFD2E480068344910
:104C5000884200DC7BE700BF012208212D48FDF7D8
:104C60000EFA0122D1030920C006FDF708FA002040
:104C700029498863C863012210212648FDF7FFF9FE
:104C800021E00220FDF70EF800F03CFC1D48006812
:104C9000401E1C490860012208211E48FDF7EFF95B
:104CA0000122D1030920C006FDF7E9F900201A49C5
:104CB000886319208001C863012210211548FDF77F
:104CC000DEF900F0EDFC0F4800680028D9DC012275
:104CD00008211048FDF7D3F90122D1030920C006AD
:104CE000FDF7CDF900200C498863C863012210212B
:104CF0000848FDF7C4F90B480078022188430949A8
:104D0000087010BD48010020B80B00008000002092
:104D10008400002000040048002C01405C010020B9
:104D2000B8880000A300002070B5054600261DE0ED
:104D30000120C0032840002805D001220221484854
:104D4000FDF79DF904E0002202214548FDF797F99F
:104D50006804050C002201214148FDF790F9012269
:104D600011463F48FDF78BF9701CC6B2102EDFDBF1
:104D7000012280210920C006FDF781F9002280214F
:104D80000920C006FDF77BF900243648007800288A
:104D900001D00120044334480078002801D00220CB
:104DA000044332480078002801D0042004433048EE
:104DB0000078002801D0082004432E4800780028FD
:104DC00001D0102004432C480078002801D0202076
:104DD00004432A480078002801D040200443284892
:104DE0000078002801D0802004432648007800285D
:104DF00002D0FF200130044323480078002802D06D
:104E000001204002044321480078002802D00120FC
:104E1000800204431E480078002802D00120C0020E
:104E200004431C480078002802D0012000030443FA
:104E300019480078002802D0012040030443174895
:104E40000078002802D00120800304431448007831
:104E5000002802D00120C00304431248048070BD22
:104E60000004004804000020050000200600002087
:104E70000700002008000020090000200A00002090
:104E80000B0000200C0000200D0000200E00002070
:104E90000F00002010000020110000201200002050
:104EA00013000020A000002030B589B004461A4845
:104EB00001681A4800686430814201D209B030BDEF
:104EC00015480068154908600020039004200290EE
:104ED000022004900D220A21204600F0AFFC019030
:104EE0000121684601770E490E48006801F0FAFD7D
:104EF0000546FBF79BFBC1B26846417706AB07AAA4
:104F000069460948FCF702FA002802D00120FCF7A4
:104F1000C9FE00BFD2E700004C01002018010020AC
:104F2000000020412C000020D401002070B50C4668
:104F30000546FBF7CDFB000F022806D06000FF21DD
:104F40004008C905081AC00F01D0284670BD204688
:104F500070BD70B50C460546FBF7BAFB000F08287C
:104F600006D06000FF214008C905081AC00F01D013
:104F7000284670BD204670BDF0B597B004460D467A
:104F800016461F460E2213A93B2000F0EFFC002816
:104F90000BD0002030602860206000211D98016047
:104FA0001C980160396017B0F0BD10A8007B0102A9
:104FB00010A8407B014308B2129010A8807B010228
:104FC00010A8C07B014308B2119010A8007C010218
:104FD00010A8407C014308B2109010A8007D010287
:104FE00010A8407D014308B20F9010A8807D0102F7
:104FF00010A8C07D014308B20E9010A8007E0002E8
:1050000010A9497E084300B20D901298FBF74AFBA5
:105010000A901198FBF746FB0B901098FBF742FBA8
:105020000C900F98FBF73EFB07900E98FBF73AFBAE
:1050300008900D98FBF736FB099022480078800015
:105040000AA9085804902048007880000858059064
:105050001E4800788000085806901A4800788000A2
:1050600007A9085801901848007880000858029055
:10507000164800788000085803908B21C9050498D1
:10508000FBF7FEF938608B21C9050598FBF7F8F9A5
:105090001C9908608B21C9050698FBF7F1F91D9949
:1050A00008600B490198FBF7EBF92060084902986A
:1050B000FBF7E6F9286006490398FBF7E1F9306051
:1050C00000BF70E7300100203101002032010020D4
:1050D00000008342FEB505460C4616461F46A64212
:1050E00001D13846FEBDA54201DC3846FAE7B5429B
:1050F00001DB0898F6E7281B0899C91B4843019073
:10510000301B009000990198FBF714F9C019E9E7EA
:10511000FEB505460C4616461F463146089801F076
:10512000E1FC0190296801F043FC286008990846D9
:1051300001F0D8FC8321C905009001F0D3FC019057
:10514000216801F035FC20601049206801F030FC36
:10515000019020680199FBF793F90290384629687D
:1051600001F050FD0090029901F0BCFC019029680B
:1051700001F01EFC28607F20C005029901F042FD6D
:105180000190216801F0AEFC2060FEBD00001041DE
:1051900070B504460120A040084988620848FCF721
:1051A00051F80A210648FBF7D5FF0548FBF7B2FE88
:1051B00085B20348FCF782F8284670BD0024014000
:1051C00094010020F8B56448016864480068FA302A
:1051D000814200D2F8BD60480068604908606048BC
:1051E000FCF730F864215E48FBF7B4FF5C48FBF73E
:1051F00091FE5C4908605A48FCF760F8594800681D
:10520000FBF758FA0746584901F06CFC0646574927
:10521000FBF736F905465649FBF732F95549097847
:105220008900554A505053490978890050585349CC
:1052300001F02EFC00D2CDE74E480078401C4D49CD
:10524000087000240AE0A0004B4A11584C4800683E
:1052500001F0AEFB4A490860601CC4B20A2CF2DBC4
:10526000484947480068FBF70BF9474908600020A8
:105270004349086045480078C007C00F002805D0A2
:1052800043494148006801F003FC0BD33F480078D4
:10529000C007C00F00281ED13E493B48006801F0FE
:1052A000F7FB18D23C4800781021884310303A4967
:1052B00008703A4800782021884320303749087028
:1052C000314800683649086030480078C007C00F90
:1052D0003449087037E0324801682B48006801F013
:1052E00091FC05460121890701F054FC05D82748A7
:1052F0000078C007C00F002819D02948016822484B
:10530000006801F07FFC05468121C90501F042FCDF
:1053100005D81E480078C007C00F002807D11B48D9
:105320000078C007C00F1F49097888420BD01A487F
:105330000078102188431849087018480078202107
:105340008843164908700B4800780A2802D10020CB
:105350000849087000BF3DE74C0100200C01002007
:1053600094010020000000203333534000F07F45BB
:105370008716D93DDA000020E400002000006041DB
:10538000DC0000200000204114000020A2000020CA
:10539000000098410000A841A3000020A4000020C4
:1053A000E0000020DB00002010B508210920C00625
:1053B000FCF75CFE012807D1264800784008400031
:1053C000401C2449087005E022480078400840004D
:1053D0002049087020210920C006FCF747FE01285B
:1053E00007D11C48007802218843801C19490870A5
:1053F00005E0184800780221884316490870012109
:105400000920C006FCF732FE012807D111480078B8
:1054100004218843001D0F49087005E00D480078FD
:10542000042188430B49087002210920C006FCF7BB
:105430001DFE012807D1074800780821884308305D
:105440000449087005E003480078082188430149B1
:10545000087010BDA200002010B50620FFF798FECE
:1054600021490880084600882049884213DB2048EB
:105470000078401C1E4908700846007803280DDBA0
:105480001C4800782021884320301A4908700320E6
:105490001749087002E00020154908701648806B13
:1054A000002820D11448C06B00281CD120211348AB
:1054B000FCF7DCFD012813D111480078401C10498D
:1054C00008700846007803280DDB0A480078402160
:1054D000884340300749087003200949087002E0FA
:1054E00000200749087010BDA60000203C0F0000F6
:1054F000A8000020A3000020002C01400004004868
:10550000A9000020F0B591B00BA80CA90DAB0EAA14
:10551000009101900FA910A8FFF72EFD4D480768D4
:105520004D490968781AFBF7C5F84C490690FAF717
:10553000A7FF04464A49204601F02CFB00D2494C03
:10554000454807600B990C98FFF7D6F84649069036
:1055500001F0C8FA05460B99084601F0C3FA02901B
:105560000C99084601F0BEFA0190029901F020FA68
:10557000039000F01FFB05900121C9070D984840DA
:1055800004900599FFF7B8F83749069001F0AAFA98
:1055900006462B46009435493548109AFFF7B8FD6A
:1055A00033460094334934480F9AFFF7B1FD33482E
:1055B00081682F48006801F025FB0A902F48416858
:1055C0002D48006801F01EFB09902D4801680A98DB
:1055D00001F018FB08902B49089801F083FA069017
:1055E00027480168069801F0E3F925490860264834
:1055F0000168099801F006FB07902249079801F01D
:1056000071FA069020480168069801F0D1F91E4908
:105610000860084600681D490860194800681C4970
:1056200008601C491848006801F05CFA0690FAF717
:10563000D7FF00B21849086016491148006801F008
:1056400051FA0690FAF7CCFF00B21449086011B085
:10565000F0BD00004C0100203401002000007A441D
:10566000CDCCCC3D0AD7A33BE12E654228010020DA
:10567000200100202C010020240100205C010020DA
:10568000380100206F12033C3C0100207C00002008
:1056900078000020000020418400002080000020CD
:1056A0002F480078401C2E490870084600781428BE
:1056B00055DB002008702B48007800280CD12A48C0
:1056C0000078401C284908700846007805280FDD3E
:1056D0000120244908700BE023480078401E22492D
:1056E000087008460078002802DC00201D49087078
:1056F0001D480078012803DB01201C49087002E0E6
:1057000000201A49087018480078022803DB01209D
:105710001749087002E00020154908701248007807
:10572000032803DB01201349087002E0002011491F
:1057300008700D480078042803DB01200E4908702A
:1057400002E000200C49087007480078052803DBB8
:1057500001200A49087002E00020084908707047DB
:1057600042010020440100204301002009000020E4
:105770000A000020060000200B0000200C00002082
:105780000EB5FCF765FFFEF705FDFEF715FB0122E0
:1057900010210920C006FCF772FCFEF793FAFEF711
:1057A000CBFAFEF7CDFBFEF791FB6420FCF77AFA0B
:1057B00000F07AF86420FCF775FA00F0DDFEFFF7E0
:1057C000E9F8194C0125AD077F20C0050290174E5E
:1057D0003746019700962A4621461548029BFEF758
:1057E00045FC00F04DF91EE0FFF7ECFCFFF7DCFD97
:1057F000FFF788FEFFF730FE00F0F4FE00F0A4FF94
:1058000000F0D6FE00F0D6FC0A480068FAF7E8FE81
:1058100000B2019000F0C8FB0748006800F0ACFA45
:10582000EB20FFF741FBDFE70080BB440000484569
:105830006C0100202C0000201400002010B503464D
:105840000948027041708370C07880088000064C5F
:10585000E0702046C0781C24A0430C30024CE0705D
:105860002046006810BD00001001002008B500218E
:10587000009101226946752000F078F868460078AA
:10588000682801D1012008BD68460078702807D03B
:1058900068460078712803D068460078732801D1E3
:1058A0000220F0E70020EEE710B5FFF7DFFF2C49FC
:1058B000087008460078002807D10120294908709F
:1058C00002E00120FCF7EEF9FBE780216B2000F0FD
:1058D000BFF86420FCF7E6F901216B2000F0B8F86E
:1058E0006420FCF7DFF9082421461B2000F0B0F803
:1058F0000A20FCF7D7F9102421461C2000F0A8F854
:105900000A20FCF7CFF916480078012805D10524B4
:1059100021461A2000F09CF809E0052421461A20AF
:1059200000F096F8032421461D2000F091F80A208B
:10593000FCF7B8F904242146192000F089F80A2060
:10594000FCF7B0F900F028F80748007820218843D8
:1059500020300549087000200249087010BD000081
:105960001C0100201E000020A2000020FEB50446FD
:105970000D4616460A2001232246D02101960095A5
:1059800002900448FCF76EFC002801D00120FEBD07
:105990000020FCE72402002000B52948C07B03005A
:1059A000FEF742FE0741050F19232D374100012064
:1059B00024490870022024490870002023490870F7
:1059C0003BE002201F49087000201F490870012099
:1059D0001E49087031E000201A49087001201A4958
:1059E000087002201949087027E002201549087044
:1059F0000120154908700020144908701DE000209E
:105A00001049087002201049087001200F490870E1
:105A100013E001200B49087000200B490870022098
:105A20000A49087009E0002006490870012006496B
:105A3000087002200549087000BF00BF00BD0000CB
:105A40005C010020300100203101002032010020E3
:105A500013B584B004460A20012105AA0B46009222
:105A6000019102902246D0210448FCF7D1FC002885
:105A700002D0012006B010BD0020FBE72402002068
:105A800010B501203649087036490870C820FCF767
:105A900009F9012034490870344908703449087004
:105AA00034490870C820FCF7FDF80120324908701D
:105AB000324908703249087032490870C820FCF732
:105AC000F1F800243EE001202E49087029490870B1
:105AD000274908702349087029490870224908702D
